:020000040800F2
:10000000A006002001010008B11F00086D180008BB
:100010008B1E00083515000873350008000000002D
:100020000000000000000000000000004D2B000850
:10003000391500080000000079210008212D000872
:100040001B0100081B0100081B0100081B01000820
:100050001B0100081B0100081B0100081B01000810
:100060001B0100081B0100083D1500081B010008CA
:100070001B0100081B0100081B0100081B010008F0
:100080001B0100081B0100081B0100081B010008E0
:100090001B0100081B0100081B0100081B010008D0
:1000A0001B0100081B0100081B0100081B010008C0
:1000B000852D00081B0100081B0100081B0100081A
:1000C0001B0100081B0100081B0100081B010008A0
:1000D0001B01000841320008FD3200081B01000826
:1000E0001B0100081B0100081B010008DFF80CD0F1
:1000F00000F096FE00480047D55A0008A0060020F0
:100100000648804706480047FEE7FEE7FEE7FEE7B1
:10011000FEE7FEE7FEE7FEE7FEE7FEE7252D000827
:10012000ED0000082DE9F0410024061B254671F181
:10013000000605DA01240027D0EB070067EB010178
:10014000161E73F1000605DA0027D2EB070201251F
:1001500067EB030300F0F6FC86460E4617469C4606
:10016000AC4204D00025D0EB050E65EB010624B1AE
:100170000020D2EB000760EB030C704631463A4694
:100180006346BDE8F08140EA01039B0703D009E024
:1001900008C9121F08C0042AFAD203E011F8013B73
:1001A00000F8013B521EF9D27047D2B201E000F8CC
:1001B000012B491EFBD270470022F6E710B513460B
:1001C0000A4604461946FFF7F0FF204610BD30B539
:1001D00004460020034600E05B1C934203D2E05C2F
:1001E000CD5C401BF8D030BD0FB400B58DB010A968
:1001F00009900B9000914FF0FF300A9000200C9076
:1002000005480690054807906A4609A80F9900F02E
:10021000F1FC0DB05DF814FB110C00082F0C000868
:100220002DE9FF4F087881B09946FF2805D0491C79
:100230002D2804D00024002308E000230BE0012433
:10024000F9E703EB830300EB4303491C0878FF281D
:10025000F7D104B15B4200200090147801462D2CA8
:1002600001D02B2C04D1521C2D2C12D00024009430
:1002700000251678FF2E0ED00A24A0FB04C801FB2F
:100280000481002700FB0711521C16EB0C0069418A
:10029000EFE70124EBE7994450EA01020ED0002475
:1002A000AA4D2646DFF8A88200F07DFD82468B46E7
:1002B000B9F1000009DAC9F100071BE0019800213B
:1002C000C0E9001105B0BDE8F08F074612E0F8075D
:1002D00007D022462B463046414600F0ACFA06468F
:1002E000884622462B461046194600F0A4FA0446DA
:1002F0000D467F10002FEAD1B9F1000F3246434678
:100300005046594602DA00F008FB01E000F093FA8B
:10031000009A0AB181F00041019AC2E90001D1E7D7
:100320002DE9FF4F1F468DB0D7E901464FF0FF384A
:100330002E2045464FF000090B90B9696D1C0E98B0
:100340008847396A824688470028F6D1BAF1FF3FCC
:100350000AD024F4D064002E11DDBAF12B0F08D09E
:10036000BAF12D0F0BD102E0404611B0ABE744F4D7
:100370008064B9696D1C0E9888478246761E69466E
:10038000600501D52D2000E02B208DF8000001F143
:10039000010B0DF1200809E0B9696D1C0E98884722
:1003A00082460F9844F40074761E0560002E02DD2C
:1003B000BAF1300FF0D00B998A453ED144F0800459
:1003C00006E00F99681CA9F1010944F40074086063
:1003D000B9696D1C761E0E98884782463028F0D089
:1003E0002BE00B998A4505D1200603D444F0800404
:1003F000761E18E0504603F08FFA08B30DF1130192
:10040000761E44F400748B4508D2AAF130000BF834
:10041000010B200607D5A9F1010003E0200602D454
:1004200009F101008146A00502D50F99681C0860FA
:10043000B9696D1C0E9888478246002ED1DC53E0C6
:10044000002E51DDBAF1650F02D0BAF1450F4BD144
:10045000A00549D5B9696D1C24F44074761E0E9828
:1004600088478246002E0CDD2B2804D0BAF12D0FD0
:1004700007D144F48074B9696D1C0E988847824690
:10048000761EE00501D52D2100E02B2108F8011B87
:10049000CDF82C8021E00DF12901761E44F4007482
:1004A00088450CD2AAF1300010F0FF0088F8000057
:1004B00002D10B99884509D908F1010806E0E00549
:1004C00001D5244801E042F20F708146B9696D1CE4
:1004D0000E98884782460F980560002E04DD50462E
:1004E00003F01AFA0028D6D1F9690E988847FF2040
:1004F0008BF8000088F800000020069007904B461B
:100500006A4608A906A8FFF78BFEA00502D46FF083
:1005100001002AE714F0240F0AD0E00714D1DDE926
:1005200006123868031D3B600068C0E900120BE04A
:10053000DDE9060100F0BFFA0146E00704D13868A2
:10054000021D3A600068016028460EE70000244062
:100550000000F03FF1D8FFFFF0B480EA0102D40FB1
:100560004200B2EB410F02D20246084611464A0051
:1005700042D0C30DDDB2C1F3C752AD1A202D35DA1A
:10058000C1F3160141F4000204B15242C5F1200644
:1005900002FA06F12A411044B3EBD05F23D0C4B174
:1005A000012DA0EBC35009DCF0BC4FF0004202EA81
:1005B000C352DBB200F5000000F053BB400000F175
:1005C000807000EBC350A0F1807040EAD170490008
:1005D00009E0490841EAC071A0EBC35000F50000F2
:1005E000400800EBC350F0BC00F032BB6142012276
:1005F00002EB4101001BF6E7F0BC704781F00041BF
:10060000AAE780F00040A7E780EA010210B502F0F7
:100610000043400022D04A001FD0010E01EB1261BE
:10062000C0F35600C2F3560240F4000042F4000248
:10063000A0FB022000047F39140400D0401C50EAC3
:10064000124001D44000491EC2B20C0604EBD01087
:10065000401C4008802A02D003E0002010BD20F09A
:100660000100002900DA0020184310BD30B480EAF0
:10067000010202F0004530F0004221F0004013D0AA
:1006800090B1C30DD40DC2F31601C0F31600E41AE5
:1006900041F4000140F400027D34914201D3641C16
:1006A00000E04900002C02DA30BC002070474FF413
:1006B00000000023914201D3891A034340084FEA06
:1006C0004101F7D151B1914202D14FF0004105E013
:1006D00002D24FF0010101E06FF0010103EBC450C1
:1006E000284430BC00F0B4BA2DE9FE4F804681EAC0
:1006F0000300C00F0C46009021F0004123F000459C
:10070000B8EB0200A94105D24046214690461C465E
:100710000B46024623F00040104347D0270DC7F395
:100720000A00C3F30A510290401A019040286BDA84
:10073000C3F3130040F4801B0098924620B10023BD
:10074000D2EB030A63EB0B0B01985946C0F1400250
:10075000504600F028FA06460D4650465946019A82
:1007600000F030FA10EB08006141002487EA1152D2
:1007700084EAE7731A4340D0009A62B3019A012ACF
:100780004FEA075215DC001B61EB02014FF00042FB
:1007900002EA0752CDE90042001C41F580113246C1
:1007A0002B4600F09BFA03B0BDE8F08F404621468F
:1007B000F9E7001B61EB0201001C41F580130018F2
:1007C0005B412018A2F5001747EB030140EAD57002
:1007D000B6196D4111E06D084FEA360645EAC0755D
:1007E0004FEA0752001B61EB0201001C41F580112A
:1007F00049084FEA30000019514132462B4603B0F8
:10080000BDE8F04F00F05BBA0098012240000023E1
:10081000D0EB020263EBE073009821464FEAE074EC
:10082000B8EB000061EB0401E9E783F000435BE70C
:1008300081F0004158E72DE9FE4F81EA030404F0FE
:10084000004421F0004100944FF0000B23F00043DE
:1008500050EA01045ED052EA03045BD0C3F30A54A9
:10086000C1F30A552C44A4F2F3340194A0FB0254C2
:10087000C1F3130141F48011C3F3130343F4801354
:1008800001FB024400FB034E840A970A44EA8154A8
:1008900047EA8357A4FB076802958D0A05FB078585
:1008A0004FEA932C04FB0C542705029D4FEA06588F
:1008B00047EA1637B5EB08056EEB070C870E920E6C
:1008C00047EA811742EA8312A7FB0201B6EB0B014C
:1008D00064EB00042B0D43EA0C335E1844EB1C5010
:1008E000DA465146E7FB0201C5F313044FEA0B3326
:1008F00043EA14534FEA0432019C43EA0603A4F18D
:100900000C040294009CCDE900B400F0E7F903B0B8
:10091000BDE8F08F00200146F9E72DE9F04D81EAAE
:10092000030404F0004B21F0004514464FF0000A88
:1009300023F0004150EA050220D054EA01021DD004
:10094000C5F30A570246C5F31303C1F31300C1F3FD
:100950000A5640F4801543F48013A7EB0608101BD9
:10096000D64608F2FD3873EB050002D308F1010802
:1009700001E092185B41B8F1000F03DA0020014654
:10098000BDE8F08D00204FF48011064684460EE04D
:10099000171B73EB050705D3121B63EB0503064317
:1009A0004CEA010C49084FEA300092185B4150EACA
:1009B0000107EDD152EA030012D082EA040083EA73
:1009C0000501084305D0101BAB4106D201220023CC
:1009D00006E000224FF0004302E06FF001025310E6
:1009E0001AEB06004CEB085110EB0A0041EB0B012F
:1009F000BDE8F04D00F063B9C10F80EAE070084433
:100A0000CA079623002100F02CB996230022114634
:100A100000F027B90EB5C10F80EAE0700844CA079C
:100A2000002140F233438DE80E000A460B4600F0E9
:100A300055F903B000BD00F0004220F00040C10DA8
:100A4000C0F3160040F400007F2901DA002070474F
:100A5000962903DCC1F19601C84001E0963988402F
:100A6000002AF4D04042704720F00040C10DC0F38E
:100A7000160040F400007F2901DA00207047962913
:100A800003DCC1F19601C840704796398840704731
:100A900000F0004230F000400AD0C10D01F5607155
:100AA000C0F3160042EA0151C208400711437047E3
:100AB00000200146704701F0004330B421F00041AE
:100AC00050EA010206D00A0DA2F56072C1F31301CB
:100AD000002A02DC30BC00207047440F44EAC10405
:100AE000C100E01830BC00EBC25000F0B1B800000B
:100AF000002801DBC0F10040002901DBC1F1004109
:100B000081427047002801DBC0F10040002901DB71
:100B1000C1F100418842704730B50B4601460020C4
:100B20002022012409E021FA02F59D4205D303FAAF
:100B300002F5491B04FA02F52844151EA2F1010230
:100B4000F1DC30BD2DE9F05F0546002092469B4662
:100B500088460646814640241BE0284641464746D3
:100B6000224600F06FF953465A46C01A914110D3FD
:100B700011461846224600F016F82D1A67EB0108B8
:100B80004F4622460120002100F00DF817EB000926
:100B90004E41201EA4F10104DFDC484631462A46BE
:100BA0004346BDE8F09F202A04DB203A00FA02F118
:100BB000002070479140C2F1200320FA03F319434B
:100BC00090407047202A06DBCB17203A41FA02F00A
:100BD00043EAE07306E041FA02F3D040C2F120029A
:100BE0009140084319467047026811441378016028
:100BF00018467047D16004495161044911620021CF
:100C00001161114600F034B9E90B0008650E0008C7
:100C1000426842B1016811F8013B23B1521EC0E99C
:100C20000012184670470121C160881E7047426853
:100C30005AB1C368016843B983688B4205D0491E25
:100C4000521CC0E90012002070474FF0FF3070477F
:100C50000029A8BF7047401C490008BF20F00100D0
:100C6000704710B4B0FA80FC00FA0CF050EA0104AE
:100C700004BF10BC704749B1CCF1200421FA04F440
:100C800011FA0CF118BF012121430843A3EB0C0119
:100C9000CB1D4FEA00614FEA102042BF002010BC7C
:100CA000704700EBC35010440029A4BF10BC70472C
:100CB000401C490008BF20F0010010BC704710B56F
:100CC000141E73F1000408DA401C41F1000192186F
:100CD0005B411A4301D120F0010010BD2DE9F04D18
:100CE00092469B4611B1B1FA81F202E0B0FA80F26D
:100CF00020329046FFF757FF04460F4640EA0A00AD
:100D000041EA0B0153465A46084313D0114653EAB1
:100D1000010019D0C8F14002504600F093F8054692
:100D20000E46504659464246FFF73DFF084305D060
:100D3000012004E020463946BDE8F08D002005433F
:100D400046EAE0762C4337430A986305E40AA0EBB1
:100D500008000022FD0A44EA47540A3002D5002068
:100D60000146E9E7010510196941DDE90845001967
:100D70006941BDE8F04DA2E770B521F0004303439F
:100D80000CD0C1F30A550024D5EB040564EB040331
:100D9000D617AD1AB34102DB0020014670BD201802
:100DA00041EB025170BD0EB540F233420292002277
:100DB000CDE900221346FFF791FF03B000BDC1F358
:100DC0000A52C1F3130140F2FF3341F480119A42F9
:100DD00002DA00200146704740F233439A42A2F201
:100DE000334202DC524200F02DB8FFF7DCBE0000B7
:100DF00030B5041E71F1000404DB4FF000444042A2
:100E000064EB0101141E73F1000405DB1C464FF076
:100E10000043524263EB0403994208BF904230BD45
:100E2000064C074D06E0E06840F0010394E8070037
:100E300098471034AC42F6D3FFF75CF928820008DB
:100E400048820008202A04DB203A21FA02F000211F
:100E5000704721FA02F3D040C2F1200291400843CA
:100E600019467047C0B24FF4F05100F0E9B90000E4
:100E70002DE9F34F8BB04FF0000801F10C000C4648
:100E80004FF0010B46460DF1080A019062690121FD
:100E900001989047051E2DD0252D2CD0216A88471A
:100EA000C0B16269012101989047216A88470028F2
:100EB000F7D1411E62690198904700E0761CA16954
:100EC0000B988847216A88470028F7D1E1690B9879
:100ED0008847DBE7A1690B9888470746A84201D1FC
:100EE000761CD3E7E1690B9888477F1C02D1B8F1E3
:100EF000000F6FD046E1002762693D4639460198F0
:100F000090472A2804D16269012101989047012560
:100F1000DFF884926269012101989047A0F13001C5
:100F20000A290AD24F45E5DC07EB870100EB4107B0
:100F3000303FDFD445F01005ECE7E90601D46FF04F
:100F400000476C280AD04C2814D0682815D06A288D
:100F50000DD074281CD07A281AD01DE062690121B6
:100F6000019890476C2802D045F0040514E045F044
:100F700002050DE045F020050AE0626901210198B3
:100F80009047682802D045F0080505E045F4006563
:100F90006269012101989047C4E9015765283DD055
:100FA00019DC58287AD00CDC452837D004DC2528F9
:100FB00026D0412831D131E046282FD047282CD1E6
:100FC0002CE05B2877D0612828D063287CD0642867
:100FD00023D15AE0D0E06F2848D008DC66281DD025
:100FE00067281BD0692821D06E2816D127E07028E9
:100FF00045D0732868D0752847D078280DD14DE0AA
:10100000A1690B988847054625283FF469AFE16937
:101010000B9888476D1C3FF46AAFB3E023466A46DD
:101020006FF001000B99FFF77BF99EE045F040005F
:101030006060A80723464FF0000236D43EE0E80780
:101040007FF447AF2068011D21600068290501D5A4
:1010500006701BE7290701D5068017E7A90703D506
:10106000F117C0E9006111E706600FE745F04000A5
:101070006060A80723464FF0080216D41EE040F631
:101080000E0125EA0100606016E045F04000606056
:10109000A80723464FF00A0207D40FE045F04000AE
:1010A0006060A80708D5234610226FF001000B9955
:1010B000AFF3008059E007E0234610226FF00100F3
:1010C0000B99AFF3008050E04FF000094F464B46BC
:1010D000632802D05B2806D040E0E80601D4012056
:1010E000A06001273AE062690121019890475E28DB
:1010F00005D14FF00109626949460198904721697D
:1011000039B900210A46534643F82120491C0829D1
:10111000FADBB0B3216969B9C11700EBD162531191
:101120000AEB830122F01F02821A01200B68904013
:1011300003430B6062690121019890475D28E8D163
:10114000B9F1000F09D00020514651F82020D243B8
:1011500041F82020401C0828F7DB02AB224600970C
:101160006FF001000B99AFF3008000280CDA401CEF
:1011700008D1BBF1000F05D04FF0FF300DB0BDE836
:10118000F08FFFE74046F9E7E90701D108F10108D0
:1011900006444FF0000B79E6CCCCCC0C2DE9F04D99
:1011A00000231A461B1A8A4103DB00200146BDE8D2
:1011B000F08DC1F30A52C1F3130141F480154FF0D1
:1011C000000BD10702D100186D41521E00270446C2
:1011D00040F2FF11384601EB620A3E468046024665
:1011E00000204FF48011FFF72DFEC2197141BB188A
:1011F00046EB0100B4EB030C75EB000C04D3E41ACE
:1012000065EB000517460E46241908F101006D41F3
:1012100080463428E3DDF91946EB0600091BA84196
:1012200003D24FF0FF32134601E0002213461BEBBE
:10123000070046EB0A51BDE8F04DFFF740BD000046
:101240007F2801D9002208E0064A02EB5002C007BD
:10125000127800D1120902F00F02012090400840DC
:10126000704700009881000821B1826842F00102B5
:10127000826003E0826822F0010282607047000011
:1012800010B504461248844208D10121401500F0EF
:10129000A1FF0021601500F09DFF17E00D4884427A
:1012A00008D10121001500F095FF0021201500F064
:1012B00091FF0BE00848844208D10121C80300F0E7
:1012C00089FF00214FF4004000F084FF10BD0000B2
:1012D0000024014000280140003C0140014600205C
:1012E0008A6802F004020AB1012000E00020704781
:1012F0000146C86C80B270470246002013680B405C
:101300000BB1012000E000207047014600208A68F0
:1013100002F008020AB1012000E00020704700003E
:1013200030B502460020002350680F4C20400D7954
:101330000C6844EA05242043506090680B4C204020
:10134000D1E902542C434D7944EA4504204390608E
:10135000D06A20F470000C7C641EE4B2234340EA9F
:101360000350D06230BD0000FFFEF0FFFDF7F1FF3B
:10137000F0B504460D4600200021092D11DDE0687E
:10138000A5F10A0606EB4607072606FA07F1884389
:10139000A5F10A0606EB460603FA06F10843E060EB
:1013A0000CE0206905EB4507072606FA07F188439C
:1013B00005EB450603FA06F108432061072A0FDA18
:1013C000606B561E06EB86071F2606FA07F1884358
:1013D000561E06EB860605FA06F10843606322E016
:1013E0000D2A0FDA206BD61F06EB86071F2606FA9A
:1013F00007F18843D61F06EB860605FA06F1084377
:10140000206310E0E06AA2F10D0606EB86071F26B6
:1014100006FA07F18843A2F10D0606EB860605FAE7
:1014200006F10843E062F0BD816841F00801816087
:10143000704721B1826842F4A002826003E08268B2
:1014400022F4A00282607047816841F0040181604B
:101450007047000000B587B001214FF4017000F023
:10146000A9FE4FF4004000F089FE0220ADF8040010
:1014700000208DF8070001A9174800F0DBF8174895
:10148000FFF7FEFE002002908DF80C008DF80D0095
:101490004FF4602004900020059001208DF8180082
:1014A00002A90E48FFF73CFF01210C48FFF7DCFEC4
:1014B0000A48FFF7B9FF00BF0848FFF726FF0028DA
:1014C000FAD10648FFF7C0FF00BF0448FFF706FF48
:1014D0000028FAD107B000BD0008014000240140F7
:1014E00010B54FF40051024800F07AF910BD000029
:1014F0000010014008B50121102000F05BFE102013
:101500008DF803004002ADF8000001208DF80200C4
:101510006946024800F08EF808BD00000010014046
:1015200010B54FF40051024800F058F910BD00000A
:101530000010014000BFFEE77047000010B5052015
:1015400003F03AF90A48006848B909488C30006845
:1015500008B9012000E0002005498C31086000BF77
:10156000034800680028FBD0102000F003F810BDED
:101570003081214201490860704700001404014095
:1015800010B586B004460121052000F013FE0121AC
:10159000480400F0FFFD0420ADF8140003208DF88E
:1015A000160018208DF8170005A9204800F042F811
:1015B0000820ADF8140004208DF8170005A91B4879
:1015C00000F038F826208DF8000000208DF801008A
:1015D0008DF8020001208DF80300684600F0EAFC57
:1015E00001944FF48050ADF808004000ADF80A00B7
:1015F000C010ADF80C000020ADF810000420ADF8CC
:101600000E0001A90A4801F03FFF40F225510848A9
:1016100001F0C2FE012240F22551054801F00EFF03
:101620000121034801F0C7FE06B010BD00080140CB
:10163000004400402DE9F04102460025002600202C
:1016400000230024002791F803C00CF00F0591F847
:1016500003C00CF0100CBCF1000F03D091F802C0D5
:101660004CEA050591F800C0BCF1000F31D01468B8
:1016700000202BE04FF0010C0CFA00F3B1F800C091
:101680000CEA03069E4220D183004FF00F0C0CFAA7
:1016900003F7BC4305FA03FC4CEA040491F803C0C9
:1016A000BCF1280F06D14FF0010C0CFA00FCC2F877
:1016B00014C00AE091F803C0BCF1480F05D14FF007
:1016C000010C0CFA00FCC2F810C0401C0828D1D351
:1016D0001460B1F800C0BCF1FF0F34DD5468002085
:1016E0002EE000F1080C4FF0010808FA0CF3B1F8F5
:1016F00000C00CEA03069E4221D183004FF00F0C7C
:101700000CFA03F7BC4305FA03FC4CEA040491F815
:1017100003C0BCF1280F05D100F1080C08FA0CF841
:10172000C2F8148091F803C0BCF1480F07D100F152
:10173000080C4FF0010808FA0CF8C2F81080401CA1
:101740000828CED35460BDE8F0810000F0B50A4609
:10175000002300240021002500F00046B6F1004FD0
:1017600002D11D4EF16901E01B4E7168C0F30345C3
:1017700083B200F44016B6F5401F08D121F0706125
:10178000154E766826F07066134F7E6012E000F406
:101790008016B6F5801F06D1032606FA05F4A1438C
:1017A00041F0706106E0460D360103FA06F6B143DA
:1017B00041F0706122B1460D360103FA06F631435D
:1017C00000F00046B6F1004F02D1034EF16101E096
:1017D000014E7160F0BD00000000014041617047A2
:1017E0000161704710B504460723012221460948CC
:1017F000FFF7BEFD01210748FFF71BFE00BF0221D6
:101800000448FFF779FD0028F9D00248FFF770FD82
:1018100010BD0000002401402DE9F84F0120FFF722
:10182000E1FF00900098FFF7F0F883464FF08B41FE
:10183000FEF71CFF8246FFF72BF906464FF0663293
:10184000074BFEF7F8FF04464FF06632054BFEF7F4
:10185000F2FF8046FFF72FF903490860BDE8F88FD3
:1018600066660A4066661840BC00002000BFFEE7BE
:101870002DE9FC4104460D4616466B4606223B21E7
:10188000682000F02CFA0746BFB99DF801009DF8CA
:10189000001040EA012000B220809DF803009DF86E
:1018A000021040EA012000B228809DF805009DF852
:1018B000041040EA012000B230803846BDE8FC81C7
:1018C0002DE9FC4104460D4616466B46062243218F
:1018D000682000F004FA0746BFB99DF801009DF8A2
:1018E000001040EA012000B220809DF803009DF81E
:1018F000021040EA012000B228809DF805009DF802
:10190000041040EA012000B230803846BDE8FC8176
:101910002DE9F84F6B4602224121682000F0DFF9E3
:101920009DF801009DF8001040EA01200FFA80FAAE
:101930005046FFF76FF8804600220B4BFEF7EDFF95
:1019400006460A4A0A4BFEF7CFFE0446FFF7B3F8F5
:10195000834608495846FEF757FE0446FFF76BF8E2
:1019600000B2BDE8F88F000000407540A4703D0A49
:10197000D74342400000C84210B500200E4908601D
:101980000E48006820F470400C4908600846006862
:1019900040F44050086000200949C1F8AC0100F053
:1019A00011F801200449086000F00CF800200449F7
:1019B000C1F8A80110BD0000A8812142040C01401B
:1019C0000080214210B5022002F01CFF10BD000073
:1019D00008B50121082000F0EDFB4FF44060ADF8A0
:1019E000000010208DF8030003208DF802006946E6
:1019F0000448FFF71FFE4FF440610248FFF7F0FE76
:101A000008BD0000000C014010B500200E49086020
:101A10000E48006820F470400C49086008460068D1
:101A200040F44050086001200949C1F8AC01FFF7BB
:101A3000C9FF012004490860FFF7C4FF00200449E2
:101A4000C1F8A80110BD0000A8812142040C01408A
:101A50000080214270B5054600241648006820F435
:101A60007040144908600846006840F4004008606F
:101A7000002614E0002010490860FFF7A3FF0120B2
:101A80000E49C1F8A8016006040E0B487C380068B6
:101A900008B1601CC4B2FFF795FF701CC6B2082ED7
:101AA000E8DB15B9FFF7B0FF01E0FFF765FF20465F
:101AB00070BD0000040C0140A88121420080214239
:101AC00070B504461248006820F470401049086060
:101AD0000846006840F44050086000200D49086046
:101AE000002512E0E0090B49091D08606006040E9C
:101AF00001200949C1F8A801FFF764FF002005494A
:101B00000860FFF75FFF681CC5B2082DEADB70BDF7
:101B1000040C0140A88121420080214210B50E48EA
:101B2000006820F470400C4908600846006840F4E2
:101B3000405008600120094908600949C1F8A8011E
:101B4000FFF740FF002005490860FFF73BFF00203A
:101B50000349C1F8A80110BD040C0140AC81214229
:101B60000080214210B50E48006820F470400C49F6
:101B700008600846006840F44050086000200949A9
:101B800008600949C1F8AC01FFF71CFF01200549B5
:101B900008600549C1F8AC01FFF714FF10BD000053
:101BA000040C0140A88121420080214210B500248C
:101BB0001448006820F47040124908600846006824
:101BC00040F40040086001200F490860FFF7FAFE6A
:101BD00001200E49C1F8A801FFF7F4FE07E0601CE0
:101BE000C4B2FA2C03DDFFF7BDFF012010BD06488B
:101BF000803800680028F2D10349091F086000BF3F
:101C0000F4E70000040C0140AC8121420080214235
:101C100010B5FFF7DDFE80216B2000F0E4F86420B2
:101C200002F0CAFD00216B2000F0DDF8032000F077
:101C300098F8002000F08DF8322000F0B7F800216D
:101C4000382000F0D0F800216A2000F0CCF8002104
:101C5000232000F0C8F88021372000F0C4F8752058
:101C600000F020F8044621460AA001F0F1FC682C9F
:101C70000BD101216B2000F0B6F800216C2000F0A0
:101C8000B2F8322000F092F801E0012010BD0020EF
:101C9000FCE700006D707520616464723D25780D6D
:101CA0000A00000070B50446FFF738FFD020FFF7A8
:101CB00007FFFFF77BFF2046FFF702FFFFF776FFE6
:101CC000FFF72CFFD120FFF7FBFEFFF76FFF00208F
:101CD000FFF7C0FE0546FFF745FF284670BD2DE91A
:101CE000F04106460F4614461D46FFF717FF002138
:101CF00041EA4601C8B2FFF7E3FEFFF757FF20B104
:101D0000FFF730FF0120BDE8F0813846FFF7D8FE2D
:101D1000FFF74CFFFFF702FF012101EB4601C8B2BC
:101D2000FFF7CEFEFFF742FF0DE0012C04D10020AB
:101D3000FFF790FE287003E00120FFF78BFE28706C
:101D4000601EC4B26D1C002CEFD1FFF70BFF00200A
:101D5000D9E710B50446E006010E1C2000F043F858
:101D600010BD10B50446E006010E1B2000F03BF844
:101D700010BD70B504460025BC2C01DB012510E028
:101D8000622C01DB02250CE02A2C01DB032508E094
:101D9000142C01DB042504E00A2C01DB052500E0FE
:101DA000062529461A2000F01EF870BD70B50446BD
:101DB000B4F57A7F01DD4FF47A74042C00DA042440
:101DC0004FF47A7090FBF4F0401EC5B229461920FA
:101DD00000F009F80546264604EBD671C1F34F0022
:101DE000FFF7C7FF70BD70B505460C46FFF796FEBE
:101DF000D020FFF765FEFFF7D9FE18B1FFF7B2FE5E
:101E0000012070BD2846FFF75BFEFFF7CFFE20469E
:101E1000FFF756FEFFF7CAFE18B1FFF7A3FE012039
:101E2000EFE7FFF79FFE0020EBE72DE9F0410546C5
:101E30000E4617469846FFF771FE002141EA45011C
:101E4000C8B2FFF73DFEFFF7B1FE20B1FFF78AFEF3
:101E50000120BDE8F0813046FFF732FEFFF7A6FE15
:101E600000240CE018F80400FFF72AFEFFF79EFE9E
:101E700018B1FFF777FE0120EBE7601CC4B2BC424B
:101E8000F0DBFFF76FFE0020E3E700BFFEE7000096
:101E900030B589B005460C460121042000F07AF9DE
:101EA0000121082000F086F9C020ADF8200018209C
:101EB0008DF8230003208DF8220008A91948FFF7A8
:101EC000B9FBC0211748FFF789FCADF81850ADF8F1
:101ED00014400020ADF81A00ADF8160005A912480C
:101EE00001F05CF97020ADF804000120ADF80600A7
:101EF0000220ADF80C0001A90B4801F095F801A9EA
:101F0000094801F0E7F80821074801F0D9F808214D
:101F1000054801F031F90121034801F05EF809B0EC
:101F200030BD0000000C01400008004070B50446C0
:101F30000D46A1B2034801F02CF9A9B2014801F005
:101F40002AF970BD0008004070B504460D462146D0
:101F50002046FFF7EBFF4FF47A7002F02DFC4FF4B0
:101F60007A7002F029FC4FF47A7002F025FC4FF4ED
:101F70007A7002F021FC4FF47A7002F01DFC2946C1
:101F80002846FFF7D3FF4FF47A7002F015FC4FF4A8
:101F90007A7002F011FC4FF47A7002F00DFC4FF4ED
:101FA0007A7002F009FC4FF47A7002F005FC70BD03
:101FB0007047000070B5002100230F22C47804B3DD
:101FC000154C246804F4E064C4F5E064210AC1F10E
:101FD0000403CA40447804FA03F18478144021438E
:101FE00009010E4C0678A155047804F01F05012460
:101FF000AC4005786D11AD0005F1E025C5F8004154
:1020000009E0047804F01F050124AC40044D067873
:10201000761145F8264070BD0CED00E000E400E0CC
:1020200080E100E002490143024A1160704700006C
:102030000000FA050CED00E000201649C8610862B6
:102040004862886214484861144888611448C8602E
:1020500014480861144808604FF07E5048601348E7
:1020600088600020C8621249C861086248628862BC
:1020700009484861094888610948C86009480861F9
:10208000094808604FF07E5048600848886000208A
:10209000C86270474002002000007A4400007AC401
:1020A0000000F0410000F0C10000A040CDCCCC3ECB
:1020B0007002002070B59EB02A48008800F40040ED
:1020C00000284DD000240025002621E02648405D50
:1020D0000A2802D10026641C19E02348405D2C2800
:1020E00008D02148405D04EB84016A4602EB81017F
:1020F0008855761C1C48405D2C2808D1002004EB34
:1021000084016A4602EB810188550026641C6D1C1F
:10211000052CDBDD154A16A16846FEF765F8134A63
:10212000121D13A105A8FEF75FF8104A083210A18E
:102130000AA8FEF759F80F4A0DA10FA8FEF754F8A8
:102140000C4A121D0AA114A8FEF74EF8094A0832DB
:1021500007A119A8FEF748F800200249088000BF2F
:102160001EB070BD400000200C0100204002002085
:102170002566000070020020704700000146002024
:10218000034A506820F44040084350607047000004
:102190000010024029B1064AD2690243044BDA61B9
:1021A00004E0034AD2698243014BDA6170470000C0
:1021B0000010024029B1064A92690243044B9A6119
:1021C00004E0034A92698243014B9A617047000020
:1021D0000010024029B1064AD2680243044BDA607B
:1021E00004E0034AD2688243014BDA607047000082
:1021F0000010024030B500210022002400232D4DA4
:102200006D6805F00C0121B1042905D0082923D1FE
:1022100005E0294D056022E0274D05601FE0254DB2
:102220006D6805F47012234D6D6805F48034022545
:1022300005EB92421CB9214D554305600BE01D4D45
:102240006D6805F400351DB11C4D5543056002E075
:10225000194D5543056002E0174D056000BF00BFF2
:10226000144D6D6805F0F0010909154D6B5C0568AA
:10227000DD4045600F4D6D6805F4E061090A104DC1
:102280006B5C4568DD4085600A4D6D6805F4605102
:10229000C90A0B4D6B5C4568DD40C560054D6D6836
:1022A00005F44041890B074D6B5CC568B5FBF3F540
:1022B000056130BD0010024000127A0000093D00A7
:1022C000E0000020F000002000B587B001210820C8
:1022D000FFF770FF01210803FFF76CFF012108469B
:1022E000FFF768FF1B48406840F00100194948604B
:1022F00018208DF807003820ADF8040003208DF871
:10230000060001A91448FFF795F90820ADF814005C
:102310000020ADF81000ADF80E000720ADF8180051
:102320000020ADF80C00ADF80800ADF816004FF431
:102330008270ADF80A004FF40070ADF8120002A9E7
:10234000064800F05CF80121044800F04CF807B0A2
:1023500000BD000000000140000C014000300140C1
:10236000014600BF0948008900F002000028F9D0AA
:102370000648818100BF0548008900F0010000285F
:10238000F9D002488089C0B2704700000030014097
:1023900000B5024642F08000FFF7E2FFFF20FFF7A2
:1023A000DFFF00BD70B503460C46254643F08000B4
:1023B000FFF7D6FF002606E0FF20FFF7D1FF05F864
:1023C000010B701C86B29642F6DB002070BD00B592
:1023D00002460B4602F07F00FFF7C2FF1846FFF7E8
:1023E000BFFF002000BD21B1028842F04002028000
:1023F00004E002884FF6BF731A400280704710B5A0
:102400000022028802F441520B884C8823438C88B6
:102410002343CC8823430C8923434C8923438C8951
:102420002343CC8923431A430280838B4FF2FF74EA
:10243000234083830B8A038210BD000070B50546DC
:102440000C46082C26D2DFE804F004090D111519FA
:102450001D214FF092401D4908601BE01C481B499C
:10246000086017E01B481949086013E01A4817492B
:1024700008600FE01948154908600BE01848134937
:10248000086007E017481149086003E016480F4943
:10249000086000BF00BF0D4801684FF07E50FEF796
:1024A000E5F80A49086045EA0401062000F03AFB15
:1024B000032C09DD092000F05FFA064646F004010E
:1024C000092000F02FFB00BF70BD0000DC000020E1
:1024D0000000C0490000604A0000F04A000078484F
:1024E0000000FC4800007E490000FF4970B5054629
:1024F0000C46082C26D2DFE804F004090D1115194A
:102500001D214FF092401E4908601BE01D481C49E8
:10251000086017E01C481A49086013E01B48184976
:1025200008600FE01A48164908600BE01948144982
:10253000086007E018481249086003E0174810498E
:10254000086000BF00BF0E4801684FF07E50FEF7E4
:102550008DF80B49086045EA040040F0800107202F
:1025600000F0E0FA032C09DD092000F005FA064628
:1025700046F00801092000F0D5FA00BF70BD000048
:10258000D80000200000C0490000604A0000F04A66
:10259000000078480000FC4800007E490000FF4928
:1025A00038B503226946002000F0D0F99DF80000FC
:1025B00000049DF8011000EB01209DF80210441862
:1025C00004F4000010B144F07F4000E020460446CF
:1025D000204638BD38B503226946104600F0B6F9EA
:1025E0009DF8000000049DF8011000EB01209DF80B
:1025F0000210441804F4000010B144F07F4000E0E1
:1026000020460446204638BD2DE9F04F89B001210F
:102610000420FFF7CFFD01210846FFF7CBFD012184
:10262000BA48FFF793F810208DF80B00C002ADF800
:10263000080002208DF80A0002A9B548FEF7FAFF4B
:1026400089210C2000F06EFA18B1012009B0BDE814
:10265000F08F0D2000F090F98346BBF1100F01D0F0
:102660000120F3E7C82002F0A7F8122203A91020E6
:1026700000F06CF99DF80C0000019DF80D1000EBC6
:102680001110A44908800846008800F4006028B1B1
:102690000846B0F9000040F4704002E09D48B0F9EF
:1026A000000000B29B4908809DF80E009DF80D10B7
:1026B00001F00F0100EB01209749088008460088CF
:1026C00000F4006028B10846B0F9000040F4704002
:1026D00002E09148B0F9000000B28F4908809DF8EF
:1026E0000F0000039DF8101000EB01109DF8111071
:1026F00000EB2110894908609DF811000007000BCC
:102700009DF8121000EB01209DF813100844844935
:1027100008608248006800F4002020B17F4800680B
:102720008049084301E07D4800687C4908607C4896
:10273000006800F4002020B1794800687949084316
:1027400001E077480068764908609DF815009DF81B
:10275000141000EB012000B2734908809DF81700A7
:102760009DF8161000EB012000B270490880084661
:10277000008800F4006028B10846B0F9000040F479
:10278000704002E06948B0F9000000B26749088073
:102790009DF819009DF8181000EB012000B2644963
:1027A00008800846008800F4006028B10846B0F9A7
:1027B000000040F4704002E05D48B0F9000000B253
:1027C0005B4908809DF81B009DF81A1000EB012062
:1027D00000B2584908800846008800F4006028B11B
:1027E0000846B0F9000040F4704002E05148B0F9EA
:1027F000000000B24F4908809DF81D009DF81C1094
:1028000000EB012000B24C4908800846008800F423
:10281000006028B10846B0F9000040F4704002E0C2
:102820004548B0F9000000B24349088004217020F7
:10283000FFF704FE03213020FFF758FE072000F0C9
:10284000AFF8142001F0B8FF4FF0000A0FE000F0DD
:10285000AFF83A48C068394908610846806848615D
:10286000142001F0A9FF0AF1010000F0FF0ABAF1FB
:102870000A0FECDB4FF0000A43E000F099F82F4913
:10288000C868FEF705F980462D4A2E4BFDF7D3FFA9
:1028900004460D46294801692B48FDF7B5FE8046E0
:1028A000FEF7F6F8064622462B46FDF71DFFCDE95A
:1028B0000001FEF700F9214908618868FEF7E8F891
:1028C0001F4A204BCDE90001FDF7B5FF04460D4638
:1028D0001A4841691C48FDF797FE0190FEF7D8F8A9
:1028E000064622462B46FDF7FFFE8046FEF7E3F83C
:1028F00012494861142001F05FFF0AF1010000F065
:10290000FF0ABAF1140FB8DB00209FE60002300086
:1029100000080140C0000020C2000020D0000020BC
:10292000D40000200000F0FFC4000020C6000020FA
:10293000C8000020CA000020CC00002000020020B7
:102940009A9999999999C93FCDCC4C3F70B5044655
:102950000D461646002006490860324629462046A4
:10296000FFF720FD01200349C1F8BC01002070BD24
:10297000BC0121420000214270B5044600200649F6
:1029800008602046FFF704FD054601200349C1F811
:10299000BC01284670BD0000BC012142000021425C
:1029A00010B504462146082000F0BCF810BD000018
:1029B00010B5FFF70FFE04494860FFF7F1FD02492B
:1029C000086000F003F810BD000200202DE9FC5F54
:1029D00048494868FEF710F8804647480168404675
:1029E000FDF712FE044643490868FEF705F88046E5
:1029F000424801684046FDF707FE05464048B0F9E9
:102A00000000FDF7F9FF82462146FDF7FDFD8046F7
:102A10003C48B0F90000FDF7EFFF82464FF07C51D3
:102A2000FDF7F2FD81464146FDF796FD314988608C
:102A30003548B0F90000FDF7DFFF83462946FDF772
:102A4000E3FD82463148B0F90000FDF7D5FF51465D
:102A50000090FDF781FD81462946FDF7D5FD8046B2
:102A60002B480068FDF7C8FF41460190FDF774FD53
:102A700006462848B0F90000FDF7BEFF8346294608
:102A8000FDF7C2FD80462448B0F90000FDF7B4FF11
:102A900082464146FDF760FD814629462046FDF706
:102AA000B3FD49460190FDF7AFFD07461B48B0F95D
:102AB0000000FDF7A1FF83462146FDF7A5FD8146F5
:102AC00031462846FDF7A0FD834615480068FDF70E
:102AD00093FF59460190FDF73FFD82464946FDF7B9
:102AE0003BFD80463946FDF737FD0249C860BDE829
:102AF000FC9F000000020020D8000020DC00002025
:102B0000C2000020C0000020CC000020C80000202F
:102B1000D4000020CA000020C6000020C40000200D
:102B2000D000002070B504460D460020054908601D
:102B300029462046FFF74BFC01200349C1F8BC01A0
:102B4000002070BDBC0121420000214270470000FE
:102B500030B589B005460C4601210220FFF71AFB6B
:102B600001210820FFF726FB01210420FFF722FBAB
:102B7000C020ADF8200018208DF8230003208DF828
:102B8000220008A91948FEF755FDC0211748FEF795
:102B900025FEADF81850ADF814400020ADF81A002D
:102BA000ADF8160005A9124800F0F8FA7020ADF84B
:102BB00004000120ADF806000220ADF80C0001A9C8
:102BC0000B4800F031FA01A9094800F083FA082106
:102BD000074800F075FA0821054800F0CDFA0121F8
:102BE000034800F0FAF909B030BD000000080140C8
:102BF0000004004070B504460D46A1B2034800F041
:102C0000C8FAA9B2014800F0C6FA70BD000400403D
:102C100010B500F001F810BD0CB500200190009037
:102C20003348006840F480303149086000BF3048C4
:102C3000006800F4003000900198401C019000985A
:102C400018B90198B0F5A06FF1D12948006800F4D7
:102C5000003010B10120009001E0002000900098A9
:102C6000012843D12348006840F010002149086042
:102C70000846006820F0030008600846006840F03D
:102C8000020008601A4840681949486008464068D0
:102C900048600846406840F48060486008464068E4
:102CA00020F47C1048600846406840F4E810486012
:102CB0000846006840F08070086000BF0C4800685B
:102CC00000F000700028F9D00948406820F00300A7
:102CD000074948600846406840F00200486000BF6D
:102CE0000348406800F00C000828F9D10CBD000032
:102CF0000010024000200240042808D14FF0E021DB
:102D0000096941F004014FF0E022116107E04FF042
:102D1000E021096921F004014FF0E02211617047C0
:102D20007047000010B51348006840F001001149D9
:102D3000086008464068104908400E494860084647
:102D400000680E4908400B4908600846006820F4F6
:102D5000802008600846406820F4FE0048604FF478
:102D60001F008860FFF754FF4FF0006004490860BF
:102D700010BD0000001002400000FFF8FFFFF6FE4B
:102D800008ED00E02DE9F0410121880700F031F95C
:102D900000287DD06E4801686E480068FDF72EFC63
:102DA0006D49C8610A46D169506AFDF7D5FB6A4989
:102DB00048620A46D168506AFDF7A4FE04D266480C
:102DC000C0686549486209E0634A1169506AFDF7C5
:102DD0008FFE03D2604800695F4948625E4A116A0B
:102DE000D069FDF70BFC06465B4881683046FDF76D
:102DF0000BFC0446584A516A5068FDF705FC06462C
:102E0000554AD1691068FDF7FFFB07463146FDF7CB
:102E1000A3FB05462146FDF79FFB4F49C8620846C4
:102E2000C06908620A465169D06AFDF76BFE04D298
:102E3000494840694849C86209E0474A9169D06AEF
:102E4000FDF756FE03D2444880694349C8624248B0
:102E5000C16A4248FDF780FB0446FDF7ECFD40499E
:102E600008604048016840480068FDF7C7FB3F49DB
:102E7000C8610A46D169506AFDF76EFB3B4948625A
:102E80000A46D168506AFDF73DFE06D2374800E099
:102E90005CE0C0683549486209E0344A1169506A0B
:102EA000FDF726FE03D231480069304948622F4AB7
:102EB000116AD069FDF7A2FB06462C4881683046AE
:102EC000FDF7A2FB0446294A516A5068FDF79CFBB6
:102ED0000646264AD1691068FDF796FB074631463B
:102EE000FDF73AFB05462146FDF736FB1F49C86250
:102EF0000846C06908620A465169D06AFDF702FEB9
:102F000004D21A4840691949C86209E0174A916910
:102F1000D06AFDF7EDFD03D2144880691349C862F9
:102F20001248C16A1248FDF717FB0446FDF783FDFE
:102F3000104908600846008801B20948008800B2BC
:102F4000FFF758FE0121880700F044F8BDE8F08142
:102F500020000020180000204002002000007F44D4
:102F60000C0000201C000020140000207002002033
:102F700000007A44100000207FB505460C46012170
:102F80000846FFF707F9ADF80850ADF804400020F7
:102F9000ADF80A00ADF8060001A94FF0804000F03E
:102FA000FDF801221146900700F034F81C208DF83E
:102FB000000001208DF8010002208DF802000120A0
:102FC0008DF803006846FEF7F5FF0121880700F041
:102FD00004F87FBDCA430282704721B1028842F0E3
:102FE0000102028004E002884FF6FE731A4002805C
:102FF000704730B50246002000230024158A05EAF8
:103000000103958905EA010413B10CB1012000E028
:10301000002030BD1AB183890B43838102E083898C
:103020008B4383817047000070B500240022002389
:10303000058C4FF6FE7635400584028C8388048B20
:103040004FF68F752C40B51E2C400D882C43751EF5
:103050002A400D892A434D882A43144DA8420BD09B
:10306000134DA84208D0134DA84205D0124DA842D6
:1030700002D0124DA84213D14FF6F7752A404D8960
:103080002A434FF6FB752A408D882A434FF6FF6589
:103090002B404FF6FF552B408D892B43CD892B4379
:1030A00083800483CD888586028470BD002C014016
:1030B000003401400040014000440140004801400C
:1030C0000A460021018B4FF6F77319401143018323
:1030D0007047000070B5002400220023058C4FF6D5
:1030E000EF7635400584028C8388048B48F6FF75A3
:1030F0002C404FF6FF452C400D884FF6FF7606EA30
:1031000005252C434FF6DF752A400D8906EA051583
:103110002A434D8806EA05152A43154DA84202D0D8
:10312000144DA8421DD14FF67F752A404D894FF6A8
:10313000FF7606EA05152A434FF6BF752A408D88AB
:1031400006EA05152A434FF6FF352B404FF2FF756F
:103150002B408D8906EA85052B43CD8906EA850536
:103160002B4383800483CD880587028470BD0000D3
:10317000002C0140003401400A460021018B4FF22F
:10318000FF7319404FF6FF7303EA022319430183CB
:1031900070478186704701877047000000220288CF
:1031A0001D4B98420ED01D4B98420BD0B0F1804F72
:1031B00008D01B4B984205D01A4B984202D01A4BAC
:1031C000984204D14FF68F731A404B881A43174B1D
:1031D000984207D0164B984204D04FF6FF431A404E
:1031E000CB881A4302808B8883850B8803850A4B22
:1031F00098420BD0094B984208D00E4B984205D00C
:103200000D4B984202D00D4B984201D10B7A0386A8
:103210000123838270470000002C014000340140EC
:103220000004004000080040000C00400010004076
:1032300000140040004001400044014000480140AB
:1032400010B540F225512A4800F0CEF800283AD0B7
:10325000274800F085F904462648008800F400401D
:1032600080BB2448008800F4804088B10A2C03D039
:1032700000202049088025E01E48008840F40040D6
:103280001C4908800988C1F30D011B4A545419E0F8
:103290000D2C06D11748008840F48040154908805D
:1032A00010E014490988C1F30D01134A5454114820
:1032B0000088401C0F49088008460088C72801DDA7
:1032C0000020088000BF40F22771094800F08CF808
:1032D00060B100BF8021064800F079F80028F9D0DD
:1032E000002240F22771024800F0A8F810BD00004B
:1032F00000380140400000200C01002010B540F2D1
:103300002551204800F070F8002839D040F22551AE
:103310001C4800F041F81B4800F022F9C4B21A48DA
:10332000007858B90F2C09D10020174908701748A8
:1033300009784454FF201549087607E012480078C0
:10334000401C114908701148097844540E4800780F
:10335000182801D1012000E000200C49097E09B99C
:10336000012100E00021084050B119220749084816
:10337000FCF709FF01200749087000200249087086
:1033800010BD000000440040BA000020E40100200D
:103390007A000020B800002010B50022002340F67B
:1033A0006A14A14200D100BF0A1201249440A3B2C2
:1033B000DC43048010BD21B1828942F40052828135
:1033C00004E082894DF6FF731A40828170470246FD
:1033D0000020B1F5007F00D100BF13880B400BB176
:1033E000012000E00020704770B502460024002351
:1033F0000025002040F66A16B14200D100BFC1F39B
:10340000421501F01F03012606FA03F3012D02D134
:103410009689334006E0022D02D1168A334001E03E
:10342000968A33400C12012606FA04F416883440BA
:1034300013B10CB1012000E0002070BDF0B50346CF
:10344000002400260025002040F66A17B94200D16A
:1034500000BF1846C1F3421401F01F06012707FA06
:1034600006F5012C01D10C3004E0022C01D1103002
:1034700000E014301AB107682F43076002E00768C4
:10348000AF430760F0BD00002DE9F04786B0054668
:103490000E460024A24600BFA1460027B08900B115
:1034A00000BF2F462C8A4CF6FF700440F08804437E
:1034B0002C82AC894EF6F3100440B0883189084361
:1034C000718908430443AC81AC8A4FF6FF40044045
:1034D000B0890443AC8201A8FEF78CFE1F488742E6
:1034E00002D1DDF810A001E0DDF80CA0A88900F4FD
:1034F000004040B10AEBCA0000EB0A1031684900F5
:10350000B0FBF1F807E00AEBCA0000EB0A103168E3
:103510008900B0FBF1F86420B8FBF0F00401200949
:10352000642101FB1089A88900F4004040B13220D9
:1035300000EBC900B0FBF1F000F00700044308E025
:10354000322000EB09106421B0FBF1F000F00F0015
:1035500004432C8106B0BDE8F0870000003801402C
:1035600001468888C0F308007047C1F308028280D2
:10357000704700BFFEE7000070B504460D4601220B
:1035800040F227710748FFF759FF29462046FFF709
:10359000ECFF00BF80212046FFF719FF0028F9D07B
:1035A00070BD00000038014000B587B001218803DC
:1035B000FEF700FE01210420FEF7FCFD4FF4007031
:1035C000ADF8180003208DF81A0018208DF81B00A4
:1035D00006A91D48FEF72EF84FF48060ADF81800DC
:1035E00004208DF81B0006A91748FEF723F82520B4
:1035F0008DF8040003208DF805008DF806000120E9
:103600008DF8070001A8FEF7D5FC4FF4E1300290D9
:103610000020ADF80C00ADF80E00ADF81000ADF8CC
:1036200014000C20ADF8120002A90848FFF72CFF87
:10363000012240F225510548FFF700FF0121034810
:10364000FFF7B9FE07B000BD000801400038014097
:103650000FB4054B10B503A9044A029800F064F9B1
:1036600010BC5DF814FB0000055400083C0000206D
:10367000490050EAC12018BF04204A0D18BF40F08D
:10368000010040F2FF72B2EB515F08BF40F0020050
:10369000012808BF052070472DE9F0414F1E00EBBF
:1036A000C7010446D1E9000115461E4637F006025F
:1036B0000DD02A463346FDF7BEF87F1E04EBC70344
:1036C000D3E90023FDF710F837F00602F1D1022FFD
:1036D00025D0042F13D0062F18BFBDE8F0812A464D
:1036E0003346FDF7A8F8D4E90A23FCF7FDFF2A4684
:1036F0003346FDF7A0F8D4E90823FCF7F5FF2A4686
:103700003346FDF798F8D4E90623FCF7EDFF2A4687
:103710003346FDF790F8D4E90423FCF7E5FF2A4689
:103720003346FDF788F8D4E90223FCF7DDFF2A468B
:103730003346FDF780F8D4E90023BDE8F041FCF7FB
:10374000D3BF0122FDF718BBFCF7CEBF0022134602
:1037500010461146FDF7E1B8024A00201107FDF7B7
:103760000BBB000001FDFFFF02E008C8121F08C1EB
:10377000002AFAD170477047002001E001C1121FF2
:10378000002AFBD170470000014908607047000023
:10379000080100202DE9FF5F82B00021DDE904303F
:1037A000020DDDF840B0034318D044F61050A2F2E9
:1037B000FF3242431514119801281FD0A5EB0B00CE
:1037C000401C5FEA000A4FF000064E4FDFF83891C8
:1037D000B046504615D5CAF1000413E011980124F3
:1037E0004AA3012801D16FEA0B010298119AC0E99E
:1037F0000031C0E9024206B0BDE8F09FCBF1000005
:10380000DFE704460021404A491842EB0450CDE965
:10381000001012E0E00707D032463B4640464946DA
:10382000FDF709F88046894632463B461046194660
:10383000FDF701F806460F466410002CEAD1DDE9D9
:103840000401DDE90023BAF1000F06DAFCF7F3FF0B
:1038500042464B46FCF7EFFF05E0FDF75EF84246B7
:103860004B46FDF75AF804460E460022284BFDF75A
:10387000BFFA03D84FF0FF30014607E00022254B86
:1038800020463146FCF730FFFDF799FA102409E095
:10389000002C0ADB0A220023FDF754F9039B303287
:1038A0001A55641E50EA0102F2D1641C039AC4F155
:1038B00011031444119A012A03D0012208430DD1A7
:1038C0000AE0084304D000204FF0110B119072E77A
:1038D000A3EB0B056D1E0DE05B4504DD4FF0000210
:1038E00005F1010504E003DA4FF00002A5F101053E
:1038F000002AECD002981199C0E90231C0E90045D4
:1039000079E70000000014400000F03F30000000A4
:103910000000F0430000E03F30380A2801D20120C7
:1039200070470020704700002DE9FF4F95B09B467F
:103930008946064600250FE2252877D10024274630
:10394000F84A0121059400E0044316F8013F203BAA
:1039500001FA03F01042F7D130782A2811D06FF025
:103960002F033078A0F13002092A16D8059A44F0C6
:10397000020402EB820203EB42021044761C059023
:10398000EFE759F8042B0592002A03DA504244F479
:103990000054059044F00204761C30782E2816D18D
:1039A00016F8010F44F004042A280DD06FF02F02FE
:1039B0003078A0F13003092B09D807EB870302EB1D
:1039C0004303C718761CF3E759F8047B761C30785C
:1039D0006C280FD006DC4C2817D068280DD06A2838
:1039E00014D104E0742810D07A280FD10DE044F4EB
:1039F00000140AE044F4801401E044F440147278A6
:103A0000824202D104F58014761C761C3078662838
:103A10000BD013DC582877D009DC002875D0452856
:103A2000F6D04628F4D047281AD19DE118E0632843
:103A300035D0642879D0652812D195E1702873D0EB
:103A400008DC6728F1D069286FD06E280DD06F2868
:103A500006D1B5E073282CD0752875D0782874D09D
:103A60005A46179990476D1C75E1C4F3025002281D
:103A700009D003280DD0D9F8001004280DD00D600E
:103A800009F1040967E1D9F80010EA17C1E9005209
:103A9000F6E7D9F800100D80F2E70D70F0E719F89D
:103AA000041B8DF8001000208DF80100EA4601206B
:103AB00003E059F804AB4FF0FF3061074FF000010D
:103AC00002D40DE008F101018846B9420FDA8045C1
:103AD000F8DB1AF808100029F4D108E008F1010118
:103AE00088468142FADB1AF808100029F6D10598B9
:103AF0005B46A0EB080721463846179A00F094FA77
:103B0000284400EB080507E04DE029E10DE01AF834
:103B1000010B5A4617999047B8F10108F7D25B4656
:103B200021463846179A13E142E00A220092C4F374
:103B300002524FF0000A022A08D059F804CB032A97
:103B40004FEAEC710AD00DE029E02AE009F1070103
:103B500021F00702F2E802C1914609E00FFA8CFC5D
:103B60004FEAEC71042A03D14FFA8CFC4FEAEC7156
:103B7000002907DA0A460021DCF1000C61EB0201A2
:103B80002D2202E0220504D52B228DF804200122EB
:103B900003E0E20701D02022F7E7904659E00A212E
:103BA00002E010220DE010214FF0000A00910BE01E
:103BB00010224FF0000A44F004040827009203E0AA
:103BC00008224FF0000A0092C4F30252022A05D0E4
:103BD00059F804CB0021032A08D009E009F10701B4
:103BE00021F00702F2E802C1914605E01FFA8CFCC1
:103BF000042A01D10CF0FF0C4FF00008220728D551
:103C0000702806D0009B83F0100353EA0A0305D006
:103C10000EE040228DF80420012208E05CEA010257
:103C200006D030228DF804208DF80500022290463F
:103C3000009B83F0080353EA0A030AD15CEA0102FD
:103C400001D1620705D530228DF804204FF001081C
:103C50007F1E582804D034A003900EA802900DE0D7
:103C600036A0F9E753466046009AFCF76BFF84469E
:103C70000398825C0298401E029002705CEA010088
:103C8000F0D1029806A9081A00F1200A600702D5AF
:103C900024F4803400E00127574502DDA7EB0A0039
:103CA00000E0002000EB0A01009005984144401A12
:103CB0000590E00306D45B462146179A059800F06C
:103CC000B3F90544002706E001A85A46C05D1799DC
:103CD00090476D1C7F1C4745F6DBE0030CD55B4627
:103CE0002146179A059800F09FF9054404E030201A
:103CF0005A46179990476D1C0099481E009000295C
:103D0000F5DC08E0029802995A460078491C0291B5
:103D1000179990476D1CBAF10001AAF1010AF1DC74
:103D200065E100000928010030313233343536377F
:103D300038396162636465660000000030313233F7
:103D40003435363738394142434445460000000097
:103D500000F058F90544761C307800287FF4ECAD6B
:103D600019B02846BDE8F08F620700D4062709F194
:103D7000070222F0070CFCE80223E14603F00048AA
:103D80005FEA080C02D00FF2702C0DE05FEA045CD1
:103D900002D50FF2682C07E05FEAC47C02D00FF274
:103DA000602C01E0AFF2700C4FF0FF3823F00043BD
:103DB000CDF850C065280CD006DC452809D046282F
:103DC0001DD047283DD13DE0662818D067287ED118
:103DD00038E00021112F01DB112000E0781CCDE933
:103DE000000106A90EA8FFF7D5FCDDE90F010E9A28
:103DF00003910021009207F1010A04914DE04FF078
:103E000000400097CDE9011006A90EA8FFF7C2FCFB
:103E1000DDE90F0203920E9B11990022DDF80CA040
:103E20000093049211B9791C00EB010AB7EB0A0068
:103E300004D4C0F1FF3007F1010A0490AAEB070097
:103E4000019044E0012F00DA01270021112F01DD4C
:103E5000112000E03846CDE9000106A90EA8FFF7C1
:103E600099FCDDE90F010E9A039100210491009263
:103E7000BA4621070CD40399514500DA8A46BAF1B3
:103E8000010F05DD009AAAF10101515C302908D02B
:103E9000B84202DA10F1040F06DA0121CDE901106F
:103EA00015E0AAF10101E9E7002805DC04990144C5
:103EB0000491AAEB000102E0411C514500DD8A4655
:103EC0000499401A401C01904FF0004002902007D6
:103ED00004D40198504501DBCDF8048000208DF812
:103EE0004F0002980DF14F07B0F1004F25D02B2065
:103EF0000E9002984FF0020800280CDA404202901F
:103F00002D200E9007E00A210298FCF705FE3031C3
:103F1000029007F8011DB8F10001A8F10108F2DCD8
:103F200002980028EFD1791E0E980870307800F0C2
:103F3000200040F0450007F8020D12A8C01B00F158
:103F400007081498007800B1012000EB0A010198DD
:103F500001EBE07105984144401A401E0590E003D2
:103F600006D45B462146179A059800F05DF8054493
:103F70001498007818B15A46179990476D1CE003C1
:103F800024D55B462146179A059800F04DF8054464
:103F90001CE00498002807DBDDE90301884203DD0B
:103FA0000098405C179901E0179930205A469047D5
:103FB000049805F10105401C04900198401E0190F1
:103FC00004D12E205A46179990476D1CBAF1000172
:103FD000AAF1010ADDDC05E017F8010B5A46179932
:103FE00090476D1CB8F10001A8F10108F4DC5B46B4
:103FF0002146179A0598ABE62D0000002B00000023
:10400000200000002DE9F041044600251E46174619
:10401000880404D405E039462020B0476D1C641E96
:10402000F9D52846BDE8F0812DE9F0410446002588
:104030001E469046C80301D5302700E0202788049B
:1040400004D505E041463846B0476D1C641EF9D5DD
:104050002846BDE8F08100002DE9FE4F06460F46D8
:104060000025684601F0E0F9002442E056F82400FB
:1040700057F82410A0EB010ABAF1000F01DB5146FA
:1040800001E0CAF100010846FCF7B6FC83464FF098
:104090008F41FCF7EBFA80465DF824000021FCF725
:1040A00027FD16D05DF824104046FCF7DFFA824663
:1040B0004FF07E51FCF7A2FA814629F0004A0F48E2
:1040C000416A5046FCF71EFD12D20120A040054374
:1040D0000EE00A48C1694046FCF70AFD05D30748CF
:1040E000016A4046FCF70EFD02D20120A0400543C4
:1040F000641C032CBADB2846BDE8FE8F84740008DC
:104100002DE9F04D8D4F21F0004A86B005460C4652
:10411000BA452ADBAAEB070028430AD08848824523
:1041200001DC1AD1CDB106B02846BDE8F04DFFF74D
:1041300008BB844A844B2846FCF77DFB07460E46A5
:10414000824A834B28462146FCF775FB06B03A4667
:104150003346BDE8F04DFCF7C7BA0120FFF714FB6A
:1041600006B0BDE8F04DFFF7F1BA7A48824542DA71
:10417000BAF1795F0BDA2846FFF77AFA042808BF0C
:10418000FFF7EAFA284606B02146BDE8F08D2A4638
:104190000B461046FCF74FFB834602466E480E4620
:1041A0000B4606217844FFF777FA5A463346FCF768
:1041B00042FB804669488A465A4633460421784481
:1041C000FFF76AFA5A463346FCF735FB00223B46B6
:1041D000FCF78AFA02460B4640465146FCF79DFB27
:1041E0002A462346FCF727FB06B02A462346BDE8AD
:1041F000F04DFCF779BA284624F0004100223D46F4
:104200003B46FCF715FB4FF0FF32FCF7B5FD0646C9
:10421000024653480F460B4606217844FFF73CFA06
:1042200032463B46FCF707FBCDE900014D483246DC
:104230003B4604217844FFF72FFA32463B46FCF711
:10424000FAFA00222B46FCF74FFA834602913046D9
:10425000394602F06BFF804643480D46504517DC57
:10426000DDE900015A46029BFCF757FB42462B460C
:10427000FCF7E1FA42462B46FCF736FA0122FCF73E
:104280007BFD304A304BFCF7D0FA304A304B4CE0E3
:104290004FF0000A52460B464046FCF725FACDE99E
:1042A000031052462B4610461946FCF7C4FA324614
:1042B0003B46FCF7BDFADDE90332FCF72EFB064670
:1042C0000F46DDE900015A46029BFCF726FB8346B8
:1042D0000091012230463946FCF74EFD194A1A4B2F
:1042E000FCF7A6FA06460F46012240462946FCF78F
:1042F00043FD5A46009BFCF79EFA32463B46FCF7CC
:1043000094FA06460F46012250462946FCF734FD32
:104310000E4DDFF858802A464346FCF789FA3246AC
:104320003B46FCF785FA2A464346FCF781FA002C07
:10433000D8BF81F0004106B0BDE8F08D0000F03F2D
:104340000000F07F075C143326A6913C182D4454DE
:10435000FB21F93F0000E03F003F0000163F000056
:104360008A3E0000A03E00003333EF3FFB21E93FCF
:104370002DE9F84F04460D4621F0004000917349A5
:10438000814211DC7249884201DC06D12CB1204601
:104390002946BDE8F84FFFF7D4B96E48002DCCBFD1
:1043A0006D496E49BDE8F88F6D49814211DD6D4957
:1043B0008142D8BF4FF0FF366DDD20462946FFF71A
:1043C00057F9042808BFFFF7C7F920462946BDE87A
:1043D000F88F6549654F25F00045814233DD64491A
:1043E000814219DD002632464FF08043204629469F
:1043F000FCF77AF980468A46012220462946FCF7D6
:10440000BBFC00223B46FCF710FA42465346FCF741
:1044100084FA04460D463EE001260022BA463B4699
:1044200020462946FCF760F980460F460022534695
:1044300020462946FCF7F9F942463B46FCF76DFA5F
:1044400004460D4627E04B4981421BDDDFF828A1D9
:1044500002260022534620462946FCF7ECF90022AA
:104460003B46FCF741F980460F4600225346204662
:104470002946FCF7DAF942463B46FCF74EFA044679
:104480000D4608E0032622462B4600203B49FCF758
:1044900044FA04460D4622462B4610461946FCF7C0
:1044A000CAF98B46824602460B46FCF7C4F907461A
:1044B0000246334888460B4606217844FFF7ECF85D
:1044C00052465B46FCF7B7F982462E488B463A4681
:1044D000434605217844FFF7DFF83A464346FCF7A8
:1044E000AAF902460B46002E504659460CDAFCF754
:1044F000FBF822462B46FCF79EF901B022462B46DC
:10450000BDE8F04FFCF794B9FCF7EEF822462B46D5
:10451000FCF791F91C4A7A4402EBC603D3E9002365
:10452000FCF783F922462B46FCF77FF9174A7A44B9
:1045300002EBC603D3E90023FCF77AF9009A002ABC
:10454000B8BF81F00041BDE8F88F000000001044C2
:104550000000F07F182D4454FB21F93FFB21F9BFE7
:104560000000DC3F0000203E0000F33F0000F03F71
:104570000000E63F008003400000F83F0000F0BF6D
:10458000A23C0000603C0000FE3B0000C63B000077
:104590002DE9F04D9446CCF1000423F000464CEA9E
:1045A0000404524F46EAD4749A46884621F00042E9
:1045B000BC4206D8454240EA050442EAD474BC42F3
:1045C00004D9BDE8F04D6246FFF7BEB8AAF14055E8
:1045D000A5F17F6555EA0C040BD0022404EAAA7405
:1045E000434DDFF810E144EAD87452EA000B04D0DE
:1045F0000CE0BDE8F04DFFF7BBBE002C14BF012C52
:10460000BDE8F08D022C30D0032C32D056EA0C0BD2
:104610000AD0BE4220D1BA4209D126F0804622F00B
:1046200080423346114617E000291ADB25E0DFF807
:10463000C8B0FB44002C04BFDBE90001BDE8F08DED
:10464000012C02BFDBE9000181F00041BDE8F08DE3
:10465000022C0AD0032C0CD0BA4212D1B8F1000FB0
:104660000BDA23482549BDE8F08D28462449BDE8EA
:10467000F08D28467146BDE8F08D1D482149BDE802
:10468000F08D921B12153C2AC4BF19481D490EDC3F
:10469000BAF1000FBEBF12F13C0F0020014606DB4D
:1046A0006246FCF73AF921F00041FFF761FE002C69
:1046B00008BFBDE8F08D012C04BF81F00041BDE8CA
:1046C000F08D114A114B022C07D0FCF7AEF82A46A8
:1046D000BDE8F04D0A4BFCF7A8B8FCF7A6F82A464F
:1046E000BDE8F04D064BFCF7A3B800000000F07FDA
:1046F000182D4454FB2109C05A3B0000FB21F9BF8F
:10470000FB210940FB21F93F075C143326A6A13C9D
:104710002DE9F0410446E07800F0C006E07800F0B2
:104720003F05607800F0010098B1EF102846E917C6
:1047300005EB5171C910A5EBC101491C01F0FF083F
:104740000B48006820B10A48414602683846904745
:1047500000BF607800F0080030B10548406818B12B
:10476000B011034A516888470020BDE8F08100007D
:10477000D401002010B56FF00400FEF7BDFA0A481E
:1047800000680A49B0FBF1F0094908700846007852
:1047900000EB4001C1EBC0104FF6FF7101EAC00011
:1047A0000449088010BD0000F400002000127A00C7
:1047B00036000020380000200146114A12884A4382
:1047C0004FF0E0235A6100229A611A46126942F0C2
:1047D00001021A6100BF4FF0E022106900F00102EF
:1047E0001AB100F48032002AF5D04FF0E0221269AD
:1047F00022F001024FF0E0231A6100229A61704713
:10480000380000200146114A12784A434FF0E02355
:104810005A6100229A611A46126942F001021A6135
:1048200000BF4FF0E022106900F001021AB100F45D
:104830008032002AF5D04FF0E022126922F0010206
:104840004FF0E0231A6100229A6170473600002081
:1048500038B5044664B120208DF8000028208DF87A
:10486000010030208DF8020038208DF8030004E0AC
:10487000A32204216846FBF798FC6A46042140F60F
:104880009E2002F081FB01F06BFF38BD3EB504466F
:1048900002208DF80000CA208DF80100E3208DF879
:1048A000020009208DF803006A460421682002F006
:1048B0006BFBA3208DF8000004F0400048B1C0203D
:1048C0008DF80100C8208DF80200C2208DF8030089
:1048D00006E0A3208DF801008DF802008DF803009A
:1048E00004F4C07048B1C4208DF80400CC208DF8C9
:1048F0000500C6208DF8060006E0A3208DF8040010
:104900008DF805008DF80600A3208DF807008DF8BE
:1049100008008DF809006A460A2140F6A72002F037
:1049200033FB04F0030018B120208DF8000002E0F2
:10493000D8208DF800006A46012140F6B62002F02A
:1049400023FB04F0200018B1012000F0ADF802E0D4
:10495000002000F0A9F804F4C07008B304F48070DB
:1049600060B1B2208DF800008B208DF80100B620D8
:104970008DF802009B208DF803000BE0B0208DF82D
:10498000000080208DF80100B4208DF802009020F6
:104990008DF803006A46042140F6A22002F0F4FAE2
:1049A00004F0010020B3F8208DF800006A460121D0
:1049B0004FF40B6002F0E8FAFA21072000F02CFC1B
:1049C000072000F0F3FB012000F013FC642000F04E
:1049D000F3FC4FF4FA7000F002FDC821304800F0FB
:1049E000A3FB282000F0BCFB0A2000F0CCFB08E071
:1049F000D8208DF800006A4601214FF40B6002F0C8
:104A0000C3FA04F0020018B1D9208DF8000002E0CA
:104A1000D8208DF800006A46012140F23D7002F076
:104A2000B3FA04F0040018B1012000F069F802E0C4
:104A3000002000F065F804F0100018B10120FFF725
:104A400007FF02E00020FFF703FF44F008001549CC
:104A5000488101F085FE00201249887304F040006F
:104A600018B10846807B801D887304F4C07020B1A3
:104A70000C48807B801D0B49887304F0140020B122
:104A80000848807B10300749887304F0030020B188
:104A90000448807B001D0349887300203EBD000050
:104AA00009E3CA02D40100203EB504466CB10EA150
:104AB000D1E900208968CDE9002002916A460921E8
:104AC0004FF4976002F060FA3EBD0AA2D2E90010EE
:104AD0009268CDE9010200916A4609214FF497607E
:104AE00002F052FAF0E70000B8AAB38DB4980D3581
:104AF0005D000000B8AAAAAAB088C3C5C70000001C
:104B000038B5044664B1C0208DF80000C2208DF88D
:104B10000100C4208DF80200C6208DF8030004E0D7
:104B20008B2204216846FBF740FB6A46042140F6CD
:104B3000982002F029FA01F013FE38BD10B5C82301
:104B40004FF48062024940F6F63001F09DFC10BD42
:104B5000AC7400082DE9F04F8DB007468846154625
:104B60009946DDE9166B0024002030806B49887B74
:104B70005A4605A901F054FD18B1601E0DB0BDE8FC
:104B8000F08F6648807A00F01400002867D09DF806
:104B9000140000069DF8151040EA01409DF816101B
:104BA00040EA01209DF81710084328609DF818007E
:104BB00000069DF8191040EA01409DF81A1040EADD
:104BC00001209DF81B10084368609DF81C0000063A
:104BD0009DF81D1040EA01409DF81E1040EA01209A
:104BE0009DF81F100843A8609DF8200000069DF85E
:104BF000211040EA01409DF8221040EA01209DF872
:104C000023100843E86004F11000C4B228680014BF
:104C10000190686800140290A86800140390E86886
:104C20000014049001984043029901FB010003998C
:104C300001FB0100049901FB010ABAF1706F02DB6C
:104C4000BAF1885F05DD01F08BFD00203080401E49
:104C500094E7B6F9000040F48070308000BF2F4820
:104C6000807A00F0400020B305A9601C085C095D53
:104C700040EA012000B2A8F8000005A9E01C095C88
:104C800005AAA01C105C41EA002000B2A8F80200AE
:104C900005A9601D095C201D105C41EA002000B2DE
:104CA000A8F80400A01DC4B2B6F9000040F0080046
:104CB00030801A48408900F4C07008B305A9601C10
:104CC000085C095D40EA012000B2388005A9E01CBB
:104CD000095C05AAA01C105C41EA002000B27880A3
:104CE00005A9601D095C201D105C41EA002000B28E
:104CF000B880A01DC4B2B6F9000040F0700030804A
:104D00000648807A00F0030018B105A90819FFF7DA
:104D1000FFFC484601F014F800202FE7D4010020E2
:104D200070B588B0064601A801F002FABDF804008B
:104D30000021C90341EA5045C4034448007A00F009
:104D4000030056F8200005904048007A00F0040067
:104D500010B10598404205903C48007AC0F3C1006C
:104D600056F8200006903948007A00F0200010B173
:104D70000698404206903548007AC0F3811056F8F4
:104D8000200007903148008900F4807010B1079826
:104D9000404207900598C117A0FB042301FB043192
:104DA00000FB0510810041EA927005900698C1173A
:104DB000A0FB042301FB043100FB0510810041EA44
:104DC000927006900798C117A0FB042301FB0431E1
:104DD00000FB0510810041EA927007900598000ED3
:104DE0008DF808000598000C8DF809000598000A58
:104DF0008DF80A000598C0B28DF80B000698000ED9
:104E00008DF80C000698000C8DF80D000698000A2D
:104E10008DF80E000698C0B28DF80F000798000EAE
:104E20008DF810000798000C8DF811000798000A03
:104E30008DF812000798C0B28DF8130002AA0C2159
:104E40004FF4257002F0A0F808B070BDD401002026
:104E500030B585B0044616A207CA02AB07C3C82CFA
:104E600003DD4FF0FF3005B030BDC82090FBF4F0FB
:104E7000401E85B2280A8DF80000E8B28DF80100C6
:104E80006A46022140F2162002F07EF810B14FF07F
:104E9000FF30E8E702AA0C2140F6C12002F074F8C6
:104EA00010B14FF0FF30DEE7044884810020DAE7DC
:104EB000FEF2ABC4AAF1DFDFBBAFDFDFD40100201D
:104EC0001FB504464848007A00F0030054F820005B
:104ED00001904548007A00F0040010B1019840426A
:104EE00001904148007AC0F3C10054F820000290BC
:104EF0003D48007A00F0200010B102984042029034
:104F00003948007AC0F3811054F8200003903648E5
:104F1000008900F4807010B1039840420390334937
:104F2000019880FB0101800F40EA810001902F4928
:104F3000029880FB0110820042EA917002902B4996
:104F4000039880FB0110820042EA9170039001985F
:104F5000000E8DF800000198000C8DF801000198FA
:104F6000000A8DF802000198C0B28DF803006A466D
:104F700004214FF4747002F007F818B14FF0FF30BD
:104F800004B010BD0298000E8DF800000298000CCD
:104F90008DF801000298000A8DF802000298C0B254
:104FA0008DF803006A4604214FF4757001F0ECFFA0
:104FB00010B14FF0FF30E3E70398000E8DF80000CA
:104FC0000398000C8DF801000398000A8DF8020088
:104FD0000398C0B28DF803006A4604214FF476703E
:104FE00001F0D2FFCCE70000D401002009E3CA029F
:104FF00010B586B0044647A00068039046A000683C
:10500000029046A00068019045A00068009004F05E
:10501000030003A9085C8DF8140003A8C4F3C101C0
:10502000405C8DF8150003A8C4F38111405C8DF835
:10503000160004F0030002A9085C8DF8100002A815
:10504000C4F3C101405C8DF8110002A8C4F38111C2
:10505000405C8DF8120005AA032140F2264001F0C1
:1050600093FF18B14FF0FF3006B010BD04AA032122
:1050700040F22A4001F088FF10B14FF0FF30F3E713
:10508000019805900098049004F0040058B19DF830
:10509000140040F001008DF814009DF8100040F05D
:1050A00001008DF8100004F0200058B19DF81500A3
:1050B00040F001008DF815009DF8110040F001004E
:1050C0008DF8110004F4807058B19DF8160040F07E
:1050D00001008DF816009DF8120040F001008DF8D7
:1050E000120005AA03214FF4886001F04DFF10B1B2
:1050F0004FF0FF30B8E704AA032140F2314001F03D
:1051000043FF10B14FF0FF30AEE7064804810020A6
:10511000AAE700004CCD6C000CC92C003656760076
:1051200026466600D4010020F8B505460E464FF429
:105130007A7095FBF0F000FB06F4200E8DF800006D
:10514000200C8DF80100200A8DF80200E0B28DF8E5
:1051500003006A4604214FF4AE7001F015FFF8BD5C
:1051600038B50446052094FBF0F084B220128DF887
:105170000000E0B28DF801006A4602214FF4AD70E4
:1051800001F002FF38BD38B50446052094FBF0F06D
:1051900084B220128DF80000E0B28DF801006A465A
:1051A00002214FF4AC7001F0EFFE38BD38B5044673
:1051B0000020009004F0010020B19DF8000040F0B4
:1051C0003000009004F0020020B19DF8000040F093
:1051D0000C00009004F0040020B19DF8000040F0A5
:1051E000030000906A4601214FF4A47001F0CCFE48
:1051F00038BD38B50446012C01DA012402E0042C44
:1052000000DD0424601EC0B200906A46012140F215
:105210004F1001F0B9FE38BD2DE9FC4706460F4698
:1052200006F0070010B1B7F5C86F03DD4FF0FF308F
:10523000BDE8FC873846FBF7E8FB81465949FBF798
:1052400015FA8046684600F04DFF9DF800000228E0
:1052500006D0042816D0082826D0102848D135E0DA
:105260004FF08D414046FBF7CFF98146FBF7FCFB41
:1052700084B24D494046FBF7C7F98146FBF7F4FB82
:1052800085B238E04FF08C414046FBF7BDF98146CE
:10529000FBF7EAFB84B245494046FBF7B5F9814686
:1052A000FBF7E2FB85B226E04FF08B414046FBF76F
:1052B000ABF98146FBF7D8FB84B23D494046FBF78A
:1052C000A3F98146FBF7D0FB85B214E04FF08A4189
:1052D0004046FBF799F98146FBF7C6FB84B2354996
:1052E0004046FBF791F98146FBF7BEFB85B202E031
:1052F0004FF0FF309CE700BF20128DF80400E0B2B1
:105300008DF8050028128DF80600E8B28DF8070028
:1053100006F00100A0B101AA02214FF4EA7001F0E9
:1053200033FE10B14FF0FF3082E70DF1060202218B
:105330004FF4927001F028FE10B14FF0FF3077E784
:1053400006F00200A0B101AA02214FF4EC7001F0B6
:105350001BFE10B14FF0FF306AE70DF1060202218B
:105360004FF4947001F010FE10B14FF0FF305FE782
:1053700006F00400A0B101AA02214FF4EE7001F082
:1053800003FE10B14FF0FF3052E70DF1060202218B
:105390004FF4967001F0F8FD10B14FF0FF3047E781
:1053A000002045E700004843000040460000C0459B
:1053B000000040450000C04438B50446052094FB79
:1053C000F0F085B228128DF80000E8B28DF80100E7
:1053D0006A4602214FF4EF7001F0D6FD38BD38B5B2
:1053E0000446052094FBF0F085B228128DF80000E9
:1053F000E8B28DF801006A4602214FF4ED7001F029
:10540000C3FD38BD70B504460D46E1B20548FEF750
:10541000ACF800BF80210348FDF7D9FF0028F9D080
:10542000204670BD003801407CB5054628494968D2
:10543000087801AB04220D21FCF751FC08B10720CC
:105440007CBD9DF80700C0F301109DF8041001F029
:10545000E00140EAE1008DF800009DF80700C0F38C
:1054600081009DF8051001F0E00140EAE1008DF8AF
:1054700001009DF8070000F003009DF8061001F000
:10548000E00140EAE1008DF8020000241CE01DF874
:10549000040018B9002045F8240013E00D4845F831
:1054A000240006E055F824000B49FBF7ADF845F859
:1054B00024001DF80400401EC0B20DF804000028AE
:1054C000F0D100BF601CC4B2032CE0DB0020B7E7C2
:1054D000440000207B14AE3E1D5A843F2DE9F04F5E
:1054E00087B005460C46914601208DF8100000203B
:1054F0008DF81100FE4A1268917CFD4A52681078BE
:1055000004AB0222FCF791FC20B14FF0FF3007B052
:10551000BDE8F08FC820FFF74FF900208DF810008C
:10552000F34A1268D17BF24A5268107804AB012228
:10553000FCF77BFC10B14FF0FF30E8E7EC4A126853
:105540005179EB4A5268107804AB0122FCF76DFCEC
:1055500010B14FF0FF30DAE7E54A1268917CE44A77
:105560005268107804AB0122FCF75FFC10B14FF0D9
:10557000FF30CCE7DE4A1268D17DDD4A52681078F0
:1055800004AB0122FCF751FC10B14FF0FF30BEE735
:10559000D74A12681179D64A5268107804AB0122B2
:1055A000FCF743FC10B14FF0FF30B0E70C208DF852
:1055B0001000CF4A12681179CD4A5268107804ABB6
:1055C0000122FCF732FC10B14FF0FF309FE70F20B3
:1055D000FFF7F2F8C648806A407A8DF81000C44A96
:1055E00012689178C24A5268107804AB0122FCF725
:1055F0001CFC10B14FF0FF3089E7BD48806A007A8B
:105600008DF81000BA4A12685178B94A5268107879
:1056100004AB0122FCF709FC10B14FF0FF3076E734
:10562000B9F1000F07D0B248806A807A40F0E000FC
:105630008DF8100004E0AE48806A807A8DF8100082
:10564000AB4A12689179AA4A5268107804AB0122D9
:10565000FCF7EBFB10B14FF0FF3058E7B9F1000F4A
:1056600007D0A348806AC07A40F0E0008DF81000AF
:1056700003E0A048C07A8DF810009D4A1268D179E5
:105680009B4A5268107804AB0122FCF7CEFB10B1A4
:105690004FF0FF303BE7B9F1000F02D0C820FFF711
:1056A0008BF840208DF81000914A12681179904AC9
:1056B0005268107804AB0122FCF7B7FB10B14FF031
:1056C000FF3024E778208DF81000894A126851795C
:1056D000874A5268107804AB0122FCF7A6FB10B190
:1056E0004FF0FF3013E783498889FFF765F8002002
:1056F0008DF810007E4A126851797D4A5268107800
:1057000004AB0122FCF791FB10B14FF0FF30FEE635
:10571000774A1268917A764A5268107804AB02226E
:10572000FCF7DDFA10B14FF0FF30F0E69DF8110004
:105730009DF8101040EA012B0C209BFBF0F0C6B244
:105740000020A86068602860A060606020608246D9
:1057500065E0674A1268D17A654A5268107804ABEE
:105760000C22FCF7BCFA10B14FF0FF30CFE69DF8E9
:1057700011009DF8101040EA012000B2ADF80800B9
:105780009DF813009DF8121040EA012000B2ADF818
:105790000A009DF815009DF8141040EA012000B29F
:1057A000ADF80C00BDF90810206808442060BDF970
:1057B0000A10606808446060BDF90C10A0680844D5
:1057C000A0609DF817009DF8161040EA012000B275
:1057D000ADF800009DF819009DF8181040EA01206E
:1057E00000B2ADF802009DF81B009DF81A1040EAC7
:1057F000012000B2ADF80400BDF90010286808448B
:105800002860BDF90210686808446860BDF904109A
:10581000A8680844A8600AF1010000F0FF0AB24538
:1058200097DB3448D0F800C02868C117090441EA62
:1058300010410704624600233846FAF773FC3246EB
:105840000023CDE90201FAF76DFC28602948D0F861
:1058500000C06868C117090441EA104107046246A4
:1058600000233846FAF75EFC32460023CDE90201F8
:10587000FAF758FC68601F48D0F800C0A868C11744
:10588000090441EA10410704624600233846FAF74A
:1058900049FC32460023CDE90201FAF743FCA86037
:1058A0001448D0F804C02168C817000440EA114821
:1058B0000F046246002338464146FAF733FC32466D
:1058C0000023CDE90201FAF72DFC20600948D0F849
:1058D00004C06068C117090441EA10410704624628
:1058E00000233846FAF71EFC3246002304E000008D
:1058F0004400002084740008CDE90201FAF712FC8C
:1059000060601148D0F804C0A068C117090441EADA
:1059100010410704624600233846FAF703FC32467A
:105920000023CDE90201FAF7FDFBA060A068002882
:1059300004DDA068A0F58030A06003E0A06800F559
:105940008030A0600020E2E5847400082DE9FC5F4F
:1059500006460F4600253D494968087801AB0322F9
:105960000D21FCF7BCF910B10720BDE8FC9F9DF8A4
:10597000040000F01F008DF804009DF8050000F001
:105980001F008DF805009DF8060000F01F008DF83F
:105990000600002456E056F8240057F82410A0EB27
:1059A000010BBBF1000F01DB594601E0CBF1000117
:1059B0000846FBF721F84FF08F410090FAF756FEAA
:1059C000814601A8005D68B321490868FBF71DF80E
:1059D000834659461F48FAF749FE804604E01E49AF
:1059E0004046FAF711FE804601A8005D401EC0B295
:1059F00001A908550028F2D141464846FAF736FE7B
:105A000083464FF07E51FAF7F9FD82462AF0004BAB
:105A10000F4881695846FBF775F812D20120A04063
:105A200005430EE00A4801694846FBF761F805D3D3
:105A3000074841694846FBF765F802D20120A040BB
:105A40000543641C032CA6DB28468EE74400002097
:105A50008474000800B04C4554E3853F10B50446FB
:105A6000204600F00FF80346E01C00F00BF843EA74
:105A7000C00083B2A01D00F005F843EA801083B295
:105A8000184610BD014691F90020002A01DD0020D2
:105A90001EE091F90020002A01DA042018E091F9B3
:105AA0000120002A01DD012012E091F90120002AE5
:105AB00001DA05200CE091F90220002A01DD022024
:105AC00006E091F90220002A01DA062000E0072012
:105AD0007047000086B04FF4A060FCF7A3FAFDF712
