:020000040800F2
:10000000D0050020010100080D0F0008AD0D00080B
:10001000E90D0008750A0008FF2000080000000034
:100020000000000000000000000000006919000846
:10003000790A000800000000950F00083D1B000829
:100040001B0100081B0100081B0100081B01000820
:100050001B0100081B0100081B0100081B01000810
:100060001B0100081B0100087D0A00081B01000895
:100070001B0100081B0100081B0100081B010008F0
:100080001B0100081B0100081B0100081B010008E0
:100090001B0100081B0100081B0100081B010008D0
:1000A0001B0100081B0100081B0100081B010008C0
:1000B0001B0100081B0100081B0100081B010008B0
:1000C0001B0100081B0100081B0100081B010008A0
:1000D0001B010008D11D0008891E00081B01000833
:1000E0001B0100081B0100081B010008DFF80CD0F1
:1000F00000F038FB0048004705270008D005002025
:100100000648804706480047FEE7FEE7FEE7FEE7B1
:10011000FEE7FEE7FEE7FEE7FEE7FEE7411B00081D
:10012000ED00000840EA01039B0703D009E008C97D
:10013000121F08C0042AFAD203E011F8013B00F8AC
:10014000013B521EF9D27047F0B480EA0102D40F8D
:100150004200B2EB410F02D20246084611464A0065
:1001600042D0C30DDDB2C1F3C752AD1A202D35DA2E
:10017000C1F3160141F4000204B15242C5F1200658
:1001800002FA06F12A411044B3EBD05F23D0C4B188
:10019000012DA0EBC35009DCF0BC4FF0004202EA95
:1001A000C352DBB200F5000000F051BA400000F18C
:1001B000807000EBC350A0F1807040EAD17049001C
:1001C00009E0490841EAC071A0EBC35000F5000006
:1001D000400800EBC350F0BC00F030BA614201228D
:1001E00002EB4101001BF6E7F0BC704781F00041D3
:1001F000AAE780F00040A7E780EA010210B502F00C
:100200000043400022D04A001FD0010E01EB1261D2
:10021000C0F35600C2F3560240F4000042F400025C
:10022000A0FB022000047F39140400D0401C50EAD7
:10023000124001D44000491EC2B20C0604EBD0109B
:10024000401C4008802A02D003E0002010BD20F0AE
:100250000100002900DA0020184310BD30B480EA04
:10026000010202F0004530F0004221F0004013D0BE
:1002700090B1C30DD40DC2F31601C0F31600E41AF9
:1002800041F4000140F400027D34914201D3641C2A
:1002900000E04900002C02DA30BC002070474FF427
:1002A00000000023914201D3891A034340084FEA1A
:1002B0004101F7D151B1914202D14FF0004105E027
:1002C00002D24FF0010101E06FF0010103EBC450D5
:1002D000284430BC00F0B2B92DE9FE4F804681EAD7
:1002E0000300C00F0C46009021F0004123F00045B0
:1002F000B8EB0200A94105D24046214690461C4673
:100300000B46024623F00040104347D0270DC7F3A9
:100310000A00C3F30A510290401A019040286BDA98
:10032000C3F3130040F4801B0098924620B10023D1
:10033000D2EB030A63EB0B0B01985946C0F1400264
:10034000504600F05AF906460D4650465946019A65
:1003500000F062F910EB08006141002487EA1152B5
:1003600084EAE7731A4340D0009A62B3019A012AE3
:100370004FEA075215DC001B61EB02014FF000420F
:1003800002EA0752CDE90042001C41F580113246D5
:100390002B4600F099F903B0BDE8F08F40462146A6
:1003A000F9E7001B61EB0201001C41F58013001806
:1003B0005B412018A2F5001747EB030140EAD57016
:1003C000B6196D4111E06D084FEA360645EAC07571
:1003D0004FEA0752001B61EB0201001C41F580113E
:1003E00049084FEA30000019514132462B4603B00C
:1003F000BDE8F04F00F059B90098012240000023F9
:10040000D0EB020263EBE073009821464FEAE07400
:10041000B8EB000061EB0401E9E783F000435BE720
:1004200081F0004158E72DE9FE4F81EA030404F012
:10043000004421F0004100944FF0000B23F00043F2
:1004400050EA01045ED052EA03045BD0C3F30A54BD
:10045000C1F30A552C44A4F2F3340194A0FB0254D6
:10046000C1F3130141F48011C3F3130343F4801368
:1004700001FB024400FB034E840A970A44EA8154BC
:1004800047EA8357A4FB076802958D0A05FB078599
:100490004FEA932C04FB0C542705029D4FEA0658A3
:1004A00047EA1637B5EB08056EEB070C870E920E80
:1004B00047EA811742EA8312A7FB0201B6EB0B0160
:1004C00064EB00042B0D43EA0C335E1844EB1C5024
:1004D000DA465146E7FB0201C5F313044FEA0B333A
:1004E00043EA14534FEA0432019C43EA0603A4F1A1
:1004F0000C040294009CCDE900B400F0E5F803B0D0
:10050000BDE8F08F00200146F9E7C10F80EAE070F6
:100510000844CA079623002100F099B896230022C8
:10052000114600F094B800F0004230F000400AD0CC
:10053000C10D01F56071C0F3160042EA0151C20815
:1005400040071143704700200146704701F0004307
:1005500030B421F0004150EA010206D00A0DA2F5A4
:100560006072C1F31301002A02DC30BC0020704726
:10057000440F44EAC104C100E01830BC00EBC25093
:1005800000F05CB8002801DBC0F10040002901DB6D
:10059000C1F10041814270472DE9F05F054600201E
:1005A00092469B4688460646814640241BE02846E4
:1005B00041464746224600F0E7F853465A46C01ADD
:1005C000914110D311461846224600F016F82D1A14
:1005D00067EB01084F4622460120002100F00DF88C
:1005E00017EB00094E41201EA4F10104DFDC484650
:1005F00031462A464346BDE8F09F202A04DB203AD4
:1006000000FA02F1002070479140C2F1200320FA65
:1006100003F3194390407047202A06DBCB17203A9A
:1006200041FA02F043EAE07306E041FA02F3D040F7
:10063000C2F1200291400843194670470029A8BF23
:100640007047401C490008BF20F00100704710B4FB
:10065000B0FA80FC00FA0CF050EA010404BF10BCB0
:10066000704749B1CCF1200421FA04F411FA0CF1DD
:1006700018BF012121430843A3EB0C01CB1D4FEA16
:1006800000614FEA102042BF002010BC704700EB11
:10069000C35010440029A4BF10BC7047401C49003F
:1006A00008BF20F0010010BC704710B5141E73F194
:1006B000000408DA401C41F1000192185B411A4322
:1006C00001D120F0010010BD2DE9F04D92469B466E
:1006D00011B1B1FA81F202E0B0FA80F22032904614
:1006E000FFF78BFF04460F4640EA0A0041EA0B0180
:1006F00053465A46084313D0114653EA010019D015
:10070000C8F14002504600F03FF805460E465046FC
:1007100059464246FFF771FF084305D0012004E027
:1007200020463946BDE8F08D0020054346EAE076D4
:100730002C4337430A986305E40AA0EB0800002223
:10074000FD0A44EA47540A3002D500200146E9E791
:10075000010510196941DDE9084500196941BDE845
:10076000F04DA2E7064C074D06E0E06840F00103BB
:1007700094E8070098471034AC42F6D3FFF7BAFC70
:10078000102A0008302A0008202A04DB203A21FA27
:1007900002F00021704721FA02F3D040C2F120029A
:1007A000914008431946704721B1826842F0010226
:1007B000826003E0826822F00102826070470000DC
:1007C00010B504461248844208D10121401500F0BA
:1007D0000FFC0021601500F00BFC17E00D4884426F
:1007E00008D10121001500F003FC0021201500F0C4
:1007F000FFFB0BE00848844208D10121C80300F048
:10080000F7FB00214FF4004000F0F2FB10BD0000A8
:100810000024014000280140003C01400146002026
:100820008A6802F004020AB1012000E0002070474B
:100830000146C86C80B270470246002013680B4026
:100840000BB1012000E000207047014600208A68BB
:1008500002F008020AB1012000E000207047000009
:1008600030B502460020002350680F4C20400D791F
:100870000C6844EA05242043506090680B4C2040EB
:10088000D1E902542C434D7944EA45042043906059
:10089000D06A20F470000C7C641EE4B2234340EA6A
:1008A0000350D06230BD0000FFFEF0FFFDF7F1FF06
:1008B000F0B504460D4600200021092D11DDE06849
:1008C000A5F10A0606EB4607072606FA07F1884354
:1008D000A5F10A0606EB460603FA06F10843E060B6
:1008E0000CE0206905EB4507072606FA07F1884367
:1008F00005EB450603FA06F108432061072A0FDAE3
:10090000606B561E06EB86071F2606FA07F1884322
:10091000561E06EB860605FA06F10843606322E0E0
:100920000D2A0FDA206BD61F06EB86071F2606FA64
:1009300007F18843D61F06EB860605FA06F1084341
:10094000206310E0E06AA2F10D0606EB86071F2681
:1009500006FA07F18843A2F10D0606EB860605FAB2
:1009600006F10843E062F0BD816841F00801816052
:10097000704721B1826842F4A002826003E082687D
:1009800022F4A00282607047816841F00401816016
:100990007047000000B587B001214FF4017000F0EE
:1009A00017FB4FF4004000F0F7FA0220ADF8040006
:1009B00000208DF8070001A9174800F0DBF8174860
:1009C000FFF7FEFE002002908DF80C008DF80D0060
:1009D0004FF4602004900020059001208DF818004D
:1009E00002A90E48FFF73CFF01210C48FFF7DCFE8F
:1009F0000A48FFF7B9FF00BF0848FFF726FF0028A5
:100A0000FAD10648FFF7C0FF00BF0448FFF706FF12
:100A10000028FAD107B000BD0008014000240140C1
:100A200010B54FF40051024800F07AF910BD0000F3
:100A30000010014008B50121102000F0C9FA102073
:100A40008DF803004002ADF8000001208DF802008F
:100A50006946024800F08EF808BD00000010014011
:100A600010B54FF40051024800F058F910BD0000D5
:100A70000010014000BFFEE77047000010B50520E0
:100A800001F008FE0A48006848B909488C3000683F
:100A900008B9012000E0002005498C31086000BF42
:100AA000034800680028FBD0102000F003F810BDB8
:100AB0003081214201490860704700001404014060
:100AC00010B586B004460121052000F081FA01210D
:100AD000480400F06DFA0420ADF8140003208DF8EE
:100AE000160018208DF8170005A9204800F042F8DC
:100AF0000820ADF8140004208DF8170005A91B4844
:100B000000F038F826208DF8000000208DF8010054
:100B10008DF8020001208DF80300684600F0F8F916
:100B200001944FF48050ADF808004000ADF80A0081
:100B3000C010ADF80C000020ADF810000420ADF896
:100B40000E0001A90A4801F065FA40F22551084853
:100B500001F0E8F9012240F22551054801F034FA8C
:100B60000121034801F0EDF906B010BD0008014075
:100B7000004400402DE9F0410246002500260020F7
:100B800000230024002791F803C00CF00F0591F812
:100B900003C00CF0100CBCF1000F03D091F802C0A0
:100BA0004CEA050591F800C0BCF1000F31D0146883
:100BB00000202BE04FF0010C0CFA00F3B1F800C05C
:100BC0000CEA03069E4220D183004FF00F0C0CFA72
:100BD00003F7BC4305FA03FC4CEA040491F803C094
:100BE000BCF1280F06D14FF0010C0CFA00FCC2F842
:100BF00014C00AE091F803C0BCF1480F05D14FF0D2
:100C0000010C0CFA00FCC2F810C0401C0828D1D31B
:100C10001460B1F800C0BCF1FF0F34DD546800204F
:100C20002EE000F1080C4FF0010808FA0CF3B1F8BF
:100C300000C00CEA03069E4221D183004FF00F0C46
:100C40000CFA03F7BC4305FA03FC4CEA040491F8E0
:100C500003C0BCF1280F05D100F1080C08FA0CF80C
:100C6000C2F8148091F803C0BCF1480F07D100F11D
:100C7000080C4FF0010808FA0CF8C2F81080401C6C
:100C80000828CED35460BDE8F0810000F0B50A46D4
:100C9000002300240021002500F00046B6F1004F9B
:100CA00002D11D4EF16901E01B4E7168C0F303458E
:100CB00083B200F44016B6F5401F08D121F07061F0
:100CC000154E766826F07066134F7E6012E000F4D1
:100CD0008016B6F5801F06D1032606FA05F4A14357
:100CE00041F0706106E0460D360103FA06F6B143A5
:100CF00041F0706122B1460D360103FA06F6314328
:100D000000F00046B6F1004F02D1034EF16101E060
:100D1000014E7160F0BD000000000140416170476C
:100D20000161704710B50446072301222146094896
:100D3000FFF7BEFD01210748FFF71BFE00BF0221A0
:100D40000448FFF779FD0028F9D00248FFF770FD4D
:100D500010BD0000002401402DE9F84F0120FFF7ED
:100D6000E1FF00900098FFF7D9FB83464FF08B41DD
:100D7000FFF774FA8246FFF7D6FB06464FF066325D
:100D8000074BFFF750FB04464FF06632054BFFF769
:100D90004AFB8046FFF7DAFB03490860BDE8F88F9D
:100DA00066660A40666618406000002000BFFEE7E5
:100DB00008B50121082000F00BF94FF44060ADF8B0
:100DC000000010208DF8030003208DF80200694612
:100DD0000448FFF7CFFE4FF440610248FFF7A0FF41
:100DE00008BD0000000C014000BFFEE730B589B02F
:100DF00005460C460121042000F0DAF80121082004
:100E000000F0E6F8C020ADF8200018208DF823008F
:100E100003208DF8220008A91948FFF7ABFEC02176
:100E20001748FFF77BFFADF81850ADF814400020CD
:100E3000ADF81A00ADF8160005A9124800F076FFCB
:100E40007020ADF804000120ADF806000220ADF8D6
:100E50000C0001A90B4800F0AFFE01A9094800F001
:100E600001FF0821074800F0F3FE0821054800F0C3
:100E70004BFF0121034800F093FE09B030BD000094
:100E8000000C01400008004070B504460D46A1B2B8
:100E9000034800F046FFA9B2014800F044FF70BDCE
:100EA0000008004070B504460D4621462046FFF775
:100EB000EBFF4FF47A7001F0EDFB4FF47A7001F024
:100EC000E9FB4FF47A7001F0E5FB4FF47A7001F022
:100ED000E1FB4FF47A7001F0DDFB29462846FFF76D
:100EE000D3FF4FF47A7001F0D5FB4FF47A7001F024
:100EF000D1FB4FF47A7001F0CDFB4FF47A7001F022
:100F0000C9FB4FF47A7001F0C5FB70BD704700005B
:100F100070B5002100230F22C47804B3154C246857
:100F200004F4E064C4F5E064210AC1F10403CA409A
:100F3000447804FA03F184781440214309010E4CEB
:100F40000678A155047804F01F050124AC4005780B
:100F50006D11AD0005F1E025C5F8004109E0047808
:100F600004F01F050124AC40044D0678761145F8C5
:100F7000264070BD0CED00E000E400E080E100E000
:100F800002490143024A1160704700000000FA055F
:100F90000CED00E07047000001460020034A506855
:100FA00020F44040084350607047000000100240A9
:100FB00029B1064AD2690243044BDA6104E0034ACC
:100FC000D2698243014BDA61704700000010024091
:100FD00029B1064A92690243044B9A6104E0034A2C
:100FE00092698243014B9A617047000000100240F1
:100FF00029B1064AD2680243044BDA6004E0034A8E
:10100000D2688243014BDA60704700000010024052
:1010100030B500210022002400232D4D6D6805F01D
:101020000C0121B1042905D0082923D105E0294D5F
:10103000056022E0274D05601FE0254D6D6805F431
:101040007012234D6D6805F48034022505EB924241
:101050001CB9214D554305600BE01D4D6D6805F42D
:1010600000351DB11C4D5543056002E0194D554337
:10107000056002E0174D056000BF00BF144D6D68AC
:1010800005F0F0010909154D6B5C0568DD40456010
:101090000F4D6D6805F4E061090A104D6B5C456801
:1010A000DD4085600A4D6D6805F46051C90A0B4D3D
:1010B0006B5C4568DD40C560054D6D6805F44041D9
:1010C000890B074D6B5CC568B5FBF3F5056130BD59
:1010D0000010024000127A0000093D008400002048
:1010E0009400002000B587B001210820FFF770FFB1
:1010F00001210803FFF76CFF01210846FFF768FF95
:101100001B48406840F001001949486018208DF8DC
:1011100007003820ADF8040003208DF8060001A96F
:101120001448FFF727FD0820ADF814000020ADF8A3
:101130001000ADF80E000720ADF818000020ADF843
:101140000C00ADF80800ADF816004FF48270ADF851
:101150000A004FF40070ADF8120002A9064800F032
:101160005CF80121044800F04CF807B000BD000015
:1011700000000140000C014000300140014600BF6A
:101180000948008900F002000028F9D00648818152
:1011900000BF0548008900F001000028F9D002488E
:1011A0008089C0B2704700000030014000B502469F
:1011B00042F08000FFF7E2FFFF20FFF7DFFF00BDF6
:1011C00070B503460C46254643F08000FFF7D6FF76
:1011D000002606E0FF20FFF7D1FF05F8010B701C89
:1011E00086B29642F6DB002070BD00B502460B4683
:1011F00002F07F00FFF7C2FF1846FFF7BFFF002095
:1012000000BD21B1028842F04002028004E0028861
:101210004FF6BF731A400280704710B50022028853
:1012200002F441520B884C8823438C882343CC889A
:1012300023430C8923434C8923438C892343CC8942
:1012400023431A430280838B4FF2FF74234083832E
:101250000B8A038210BD000070B505460C46082CB1
:1012600026D2DFE804F004090D1115191D214FF0F5
:1012700092401D4908601BE01C481B49086017E0AC
:101280001B481949086013E01A48174908600FE025
:101290001948154908600BE018481349086007E031
:1012A00017481149086003E016480F49086000BF5D
:1012B00000BF0D4801684FF07E50FEF7CFFF0A498E
:1012C000086045EA0401062000F03AFB032C09DD22
:1012D000092000F05FFA064646F00401092000F0FC
:1012E0002FFB00BF70BD0000800000200000C0493F
:1012F0000000604A0000F04A000078480000FC4806
:1013000000007E490000FF4970B505460C46082CD8
:1013100026D2DFE804F004090D1115191D214FF044
:1013200092401E4908601BE01D481C49086017E0F8
:101330001C481A49086013E01B48184908600FE070
:101340001A48164908600BE019481449086007E07C
:1013500018481249086003E017481049086000BFA8
:1013600000BF0E4801684FF07E50FEF777FF0B4933
:10137000086045EA040040F08001072000F0E0FA30
:10138000032C09DD092000F005FA064646F00801A5
:10139000092000F0D5FA00BF70BD00007C000020DD
:1013A0000000C0490000604A0000F04A0000784890
:1013B0000000FC4800007E490000FF4938B50322C8
:1013C0006946002000F0D0F99DF8000000049DF867
:1013D000011000EB01209DF80210441804F40000F5
:1013E00010B144F07F4000E020460446204638BD5E
:1013F00038B503226946104600F0B6F99DF80000A2
:1014000000049DF8011000EB01209DF80210441823
:1014100004F4000010B144F07F4000E02046044690
:10142000204638BD2DE9F04F89B001210420FFF797
:10143000CFFD01210846FFF7CBFD0121BA48FFF798
:1014400025FC10208DF80B00C002ADF8080002202A
:101450008DF80A0002A9B548FFF78CFB89210C2002
:1014600000F06EFA18B1012009B0BDE8F08F0D2030
:1014700000F090F98346BBF1100F01D00120F3E793
:10148000C82001F007F9122203A9102000F06CF91E
:101490009DF80C0000019DF80D1000EB1110A449FF
:1014A00008800846008800F4006028B10846B0F9BA
:1014B000000040F4704002E09D48B0F9000000B226
:1014C0009B4908809DF80E009DF80D1001F00F015A
:1014D00000EB0120974908800846008800F400606E
:1014E00028B10846B0F9000040F4704002E091488D
:1014F000B0F9000000B28F4908809DF80F0000038A
:101500009DF8101000EB01109DF8111000EB211058
:10151000894908609DF811000007000B9DF8121022
:1015200000EB01209DF813100844844908608248AC
:10153000006800F4002020B17F480068804908431B
:1015400001E07D4800687C4908607C48006800F440
:10155000002020B1794800687949084301E07748C4
:101560000068764908609DF815009DF8141000EB9E
:10157000012000B2734908809DF817009DF81610ED
:1015800000EB012000B2704908800846008800F492
:10159000006028B10846B0F9000040F4704002E055
:1015A0006948B0F9000000B2674908809DF8190049
:1015B0009DF8181000EB012000B26449088008462D
:1015C000008800F4006028B10846B0F9000040F43B
:1015D000704002E05D48B0F9000000B25B4908804D
:1015E0009DF81B009DF81A1000EB012000B258492D
:1015F00008800846008800F4006028B10846B0F969
:10160000000040F4704002E05148B0F9000000B220
:101610004F4908809DF81D009DF81C1000EB01202B
:1016200000B24C4908800846008800F4006028B1E8
:101630000846B0F9000040F4704002E04548B0F9B7
:10164000000000B24349088004217020FFF704FE27
:1016500003213020FFF758FE072000F0AFF81420D8
:1016600001F018F84FF0000A0FE000F0AFF83A4828
:10167000C06839490861084680684861142001F053
:1016800009F80AF1010000F0FF0ABAF10A0FECDBD9
:101690004FF0000A43E000F099F82F49C868FEF7C0
:1016A00042FF80462D4A2E4BFEF7BDFE04460D46F6
:1016B000294801692B48FEF79FFD8046FEF733FF5E
:1016C000064622462B46FEF707FECDE90001FEF74F
:1016D0003DFF214908618868FEF725FF1F4A204B1E
:1016E000CDE90001FEF79FFE04460D461A48416908
:1016F0001C48FEF781FD0190FEF715FF06462246C5
:101700002B46FEF7E9FD8046FEF720FF12494861AF
:10171000142000F0BFFF0AF1010000F0FF0ABAF147
:10172000140FB8DB00209FE60002300000080140E3
:101730006400002066000020740000207800002073
:101740000000F0FF680000206A0000206C0000200C
:101750006E00002070000020900100209A99999955
:101760009999C93FCDCC4C3F70B504460D461646FD
:10177000002006490860324629462046FFF720FD32
:1017800001200349C1F8BC01002070BDBC01214209
:101790000000214270B5044600200649086020463A
:1017A000FFF704FD054601200349C1F8BC012846A6
:1017B00070BD0000BC0121420000214210B504466A
:1017C0002146082000F0BCF810BD000010B5FFF75E
:1017D0000FFE04494860FFF7F1FD0249086000F080
:1017E00003F810BD900100202DE9FC5F48494868CE
:1017F000FEF78BFE8046474801684046FEF7FCFC3A
:10180000044643490868FEF780FE80464248016866
:101810004046FEF7F1FC05464048B0F90000FEF7EF
:1018200074FE82462146FEF7E7FC80463C48B0F94C
:101830000000FEF76AFE82464FF07C51FEF7DCFCAA
:1018400081464146FEF780FC314988603548B0F951
:101850000000FEF75AFE83462946FEF7CDFC82467D
:101860003148B0F90000FEF750FE51460090FEF7F7
:101870006BFC81462946FEF7BFFC80462B4800687A
:10188000FEF743FE41460190FEF75EFC06462848FF
:10189000B0F90000FEF739FE83462946FEF7ACFC9E
:1018A00080462448B0F90000FEF72FFE82464146EC
:1018B000FEF74AFC814629462046FEF79DFC494634
:1018C0000190FEF799FC07461B48B0F90000FEF7AF
:1018D0001CFE83462146FEF78FFC81463146284692
:1018E000FEF78AFC834615480068FEF70EFE59464F
:1018F0000190FEF729FC82464946FEF725FC80460A
:101900003946FEF721FC0249C860BDE8FC9F000093
:10191000900100207C000020800000206600002054
:1019200064000020700000206C000020780000207F
:101930006E0000206A000020680000207400002073
:1019400070B504460D46002005490860294620462A
:10195000FFF74BFC01200349C1F8BC01002070BD1A
:10196000BC012142000021427047000030B589B01F
:1019700005460C4601210220FFF71AFB0121082031
:10198000FFF726FB01210420FFF722FBC020ADF862
:10199000200018208DF8230003208DF8220008A9CC
:1019A0001948FFF7E7F8C0211748FFF7B7F9ADF876
:1019B0001850ADF814400020ADF81A00ADF816002C
:1019C00005A9124800F0B2F97020ADF8040001201A
:1019D000ADF806000220ADF80C0001A90B4800F09C
:1019E000EBF801A9094800F03DF90821074800F08B
:1019F0002FF90821054800F087F90121034800F07C
:101A0000CFF809B030BD00000008014000040040DC
:101A100070B504460D46A1B2034800F082F9A9B2A0
:101A2000014800F080F970BD0004004010B500F0DE
:101A300001F810BD0CB500200190009033480068FB
:101A400040F480303149086000BF3048006800F43D
:101A5000003000900198401C0190009818B901983E
:101A6000B0F5A06FF1D12948006800F4003010B142
:101A70000120009001E0002000900098012843D14F
:101A80002348006840F010002149086008460068BB
:101A900020F0030008600846006840F0020008607B
:101AA0001A48406819494860084640684860084636
:101AB000406840F4806048600846406820F47C102C
:101AC00048600846406840F4E810486008460068EE
:101AD00040F08070086000BF0C48006800F00070A3
:101AE0000028F9D00948406820F003000749486001
:101AF0000846406840F00200486000BF0348406864
:101B000000F00C000828F9D10CBD000000100240C4
:101B100000200240042808D14FF0E021096941F07B
:101B200004014FF0E022116107E04FF0E021096964
:101B300021F004014FF0E02211617047704700006E
:101B400010B51348006840F00100114908600846CC
:101B50004068104908400E494860084600680E4930
:101B600008400B4908600846006820F4802008609F
:101B70000846406820F4FE0048604FF41F0088606B
:101B8000FFF754FF4FF000600449086010BD0000EB
:101B9000001002400000FFF8FFFFF6FE08ED00E035
:101BA00021B1028842F00102028004E002884FF66F
:101BB000FE731A400280704770B500240022002393
:101BC000058C4FF6FE7635400584028C8388048BA5
:101BD0004FF68F752C40B51E2C400D882C43751E7A
:101BE0002A400D892A434D882A43144DA8420BD020
:101BF000134DA84208D0134DA84205D0124DA8425B
:101C000002D0124DA84213D14FF6F7752A404D89E4
:101C10002A434FF6FB752A408D882A434FF6FF650D
:101C20002B404FF6FF552B408D892B43CD892B43FD
:101C300083800483CD888586028470BD002C01409A
:101C40000034014000400140004401400048014090
:101C50000A460021018B4FF6F773194011430183A7
:101C60007047000070B5002400220023058C4FF659
:101C7000EF7635400584028C8388048B48F6FF7527
:101C80002C404FF6FF452C400D884FF6FF7606EAB4
:101C900005252C434FF6DF752A400D8906EA051508
:101CA0002A434D8806EA05152A43154DA84202D05D
:101CB000144DA8421DD14FF67F752A404D894FF62D
:101CC000FF7606EA05152A434FF6BF752A408D8830
:101CD00006EA05152A434FF6FF352B404FF2FF75F4
:101CE0002B408D8906EA85052B43CD8906EA8505BB
:101CF0002B4383800483CD880587028470BD000058
:101D0000002C0140003401400A460021018B4FF2B3
:101D1000FF7319404FF6FF7303EA0223194301834F
:101D20007047818670470187704700000022028853
:101D30001D4B98420ED01D4B98420BD0B0F1804FF6
:101D400008D01B4B984205D01A4B984202D01A4B30
:101D5000984204D14FF68F731A404B881A43174BA1
:101D6000984207D0164B984204D04FF6FF431A40D2
:101D7000CB881A4302808B8883850B8803850A4BA6
:101D800098420BD0094B984208D00E4B984205D090
:101D90000D4B984202D00D4B984201D10B7A03862D
:101DA0000123838270470000002C01400034014071
:101DB0000004004000080040000C004000100040FB
:101DC0000014004000400140004401400048014030
:101DD00010B540F22551294800F0CCF8002838D041
:101DE000264800F083F904462146244800F083F990
:101DF0002348008800F4004058BB2148008800F4C4
:101E0000804060B10A2C03D000201D49088020E0EA
:101E10001B48008840F400401949088019E00D2C47
:101E200006D11748008840F480401549088010E02A
:101E300013490988C1F30D01124A5454104800880F
:101E4000401C0F49088008460088C72801DD002093
:101E5000088040F22771094800F08CF860B100BF9B
:101E60008021064800F079F80028F9D0002240F2DD
:101E70002771024800F0A8F810BD000000380140AA
:101E80001C000020AC00002010B540F22551204875
:101E900000F070F8002839D040F225511C4800F0BD
:101EA00041F81B4800F022F9C4B21A48007858B92A
:101EB0000F2C09D10020174908701748097844549D
:101EC000FF201549087607E012480078401C1149A8
:101ED00008701148097844540E480078182801D138
:101EE000012000E000200C49097E09B9012100E031
:101EF0000021084050B1192207490848FEF712F99D
:101F000001200749087000200249087010BD000038
:101F1000004400405E000020740100201E000020EC
:101F20005C00002010B50022002340F66A14A14294
:101F300000D100BF0A1201249440A3B2DC43048004
:101F400010BD21B1828942F40052828104E082896D
:101F50004DF6FF731A408281704702460020B1F5AA
:101F6000007F00D100BF13880B400BB1012000E0BF
:101F70000020704770B50246002400230025002091
:101F800040F66A16B14200D100BFC1F3421501F01C
:101F90001F03012606FA03F3012D02D1968933406F
:101FA00006E0022D02D1168A334001E0968A3340C2
:101FB0000C12012606FA04F41688344013B10CB151
:101FC000012000E0002070BDF0B50346002400268B
:101FD0000025002040F66A17B94200D100BF18461C
:101FE000C1F3421401F01F06012707FA06F5012C80
:101FF00001D10C3004E0022C01D1103000E014308B
:102000001AB107682F43076002E00768AF43076013
:10201000F0BD00002DE9F04786B005460E460024CD
:10202000A24600BFA1460027B08900B100BF2F46DD
:102030002C8A4CF6FF700440F08804432C82AC8953
:102040004EF6F3100440B088318908437189084383
:102050000443AC81AC8A4FF6FF400440B08904438E
:10206000AC8201A8FEF7D4FF1F48874202D1DDF8F9
:1020700010A001E0DDF80CA0A88900F4004040B1F8
:102080000AEBCA0000EB0A1031684900B0FBF1F816
:1020900007E00AEBCA0000EB0A1031688900B0FBC8
:1020A000F1F86420B8FBF0F004012009642101FB81
:1020B0001089A88900F4004040B1322000EBC9002B
:1020C000B0FBF1F000F00700044308E0322000EB21
:1020D00009106421B0FBF1F000F00F0004432C81E3
:1020E00006B0BDE8F087000000380140014688884E
:1020F000C0F308007047C1F308028280704700BF38
:10210000FEE7000000B587B001218803FEF760FFFD
:1021100001210420FEF75CFF4FF40070ADF81800B9
:1021200003208DF81A0018208DF81B0006A91D4801
:10213000FEF720FD4FF48060ADF8180004208DF804
:102140001B0006A91748FEF715FD25208DF8040091
:1021500003208DF805008DF8060001208DF807009A
:1021600001A8FEF7D5FE4FF4E13002900020ADF853
:102170000C00ADF80E00ADF81000ADF814000C2006
:10218000ADF8120002A90848FFF744FF012240F20F
:1021900025510548FFF718FF01210348FFF7D1FE3D
:1021A00007B000BD00080140003801400FB4054BE6
:1021B00010B503A9044A029800F018F810BC5DF8A5
:1021C00014FB0000E12600081800002002E008C807
:1021D000121F08C1002AFAD170477047002001E0A1
:1021E00001C1121F002AFBD1704700002DE9FF4FEB
:1021F0008DB00F460546002606E025280BD0DDE908
:102200000F1290476D1C761C28780028F5D111B06C
:102210003046BDE8F08F0024A246A1460122EC49D9
:1022200000E0044315F8013F203B02FA03F00842A6
:10223000F7D128782A2810D06FF02F022878A0F143
:102240003001092914D80AEB8A0102EB410144F05C
:10225000020400EB010A6D1CF0E701CF5FEA000AFF
:1022600003D544F40054CAF1000A44F002046D1C82
:1022700028782E2817D115F8010F44F004042A28D5
:102280000ED06FF02F022878A0F1300109290AD86A
:1022900009EB890102EB410100EB01096D1CF2E73A
:1022A00057F8049B6D1C28786C280FD006DC4C284E
:1022B00017D068280DD06A2814D104E0742810D0F3
:1022C0007A280FD10DE044F400140AE044F480149D
:1022D00001E044F440146978814202D104F580148D
:1022E0006D1C6D1C2A786E2A1FD00CDC632A31D03D
:1022F00004DC002A8BD0582A11D1A3E0642A68D0CC
:10230000692A0CD165E0732A2ED004DC6F2A73D0C1
:10231000702A04D19BE0752A6FD0782A6ED01046BF
:10232000DDE90F129047761C50E1C4F302500228F9
:1023300006D0032809D0042801CF09D0066045E162
:1023400001CFF117C0E9006140E101CF06803DE116
:1023500006703BE117F8040B8DF8000000208DF8A3
:102360000100EB46012003E057F804BB4FF0FF30BB
:1023700061074FF0000102D40DE008F10101884629
:1023800049450FDA8045F8DB1BF808100029F4D125
:1023900008E008F1010188468142FADB1BF80810C9
:1023A0000029F6D1DDE90F23AAEB0800814621467A
:1023B00000F036F9304400EB080604E0DDE90F12C6
:1023C0001BF8010B9047B8F10108F7D221464846A7
:1023D000F7E00A21C4F302534FF0000B0891022BDF
:1023E00004D001CFC117032B09D00AE0FF1D27F04D
:1023F0000707F7E8020108E032E01FE020E000B242
:10240000C117042B01D140B2C117031E71F10003A3
:1024100007DA4FF0000CD0EB0C006CEB01012D2320
:1024200002E0230504D52B238DF82430012303E09B
:10243000E30701D02023F7E7984658E00A2110E08F
:1024400010210EE010204FF0000B08900CE010213E
:102450004FF0000B44F004044FF00809089103E02A
:1024600008214FF0000B0891C4F30253022B04D053
:1024700001CF0021032B06D006E0FF1D27F0070740
:10248000F7E8020103E080B2042B00D1C0B24FF0A4
:10249000000823072BD5702A07D0DDF820C08CF068
:1024A000100C5CEA0B0C05D00EE040238DF82430B4
:1024B000012308E050EA010306D030238DF82430D0
:1024C0008DF8252002239846DDF820C08CF0080CFA
:1024D0005CEA0B0C0BD150EA010301D1630706D56E
:1024E00030238DF824304FF00108A9F10109582A52
:1024F00004D038A20B9208AA0A920BE03AA2F9E79C
:102500005B46089AFEF748F80B9B9B5C0A9A521EA2
:102510000A92137050EA0102F2D10A98ADEB000062
:1025200000F1200B600702D524F4803401E04FF065
:102530000109D94502DDA9EB0B0000E0002000EB0A
:102540000B0141440890AAEB010AE00306D4DDE93F
:102550000F232146504600F063F806444FF000096F
:1025600008E009A911F80900DDE90F12904709F107
:102570000109761CC145F4DBE0030CD5DDE90F232E
:102580002146504600F04CF8064404E0DDE90F1205
:1025900030209047761C0899481E08900029F5DCE9
:1025A00008E00A980A990078491C0A91DDE90F129F
:1025B0009047761CBBF10001ABF1010BF1DC214629
:1025C0005046DDE90F2300F019F806446D1C1BE6A8
:1025D00009280100303132333435363738396162F9
:1025E00063646566000000003031323334353637BD
:1025F0003839414243444546000000002DE9F0418E
:10260000044600251E461746880404D405E03946D2
:102610002020B0476D1C641EF9D52846BDE8F08126
:102620002DE9F041044600251E469046C80301D519
:10263000302700E02027880404D505E041463846CD
:10264000B0476D1C641EF9D52846BDE8F081000036
:1026500010B56FF00400FFF75DFA0A4800680A49F8
:10266000B0FBF1F0094908700846007800EB400122
:10267000C1EBC0104FF6FF7101EAC00004490880A9
:1026800010BD00009800002000127A001400002005
:10269000160000200146114A12884A434FF0E023F9
:1026A0005A6100229A611A46126942F001021A61C7
:1026B00000BF4FF0E022106900F001021AB100F4EF
:1026C0008032002AF5D04FF0E022126922F0010298
:1026D0004FF0E0231A6100229A6170471600002033
:1026E00070B504460D46E1B20548FFF704FD00BF92
:1026F00080210348FFF731FC0028F9D0204670BD47
:10270000003801408AB04FF4A060FEF739FCFFF7B3
:10271000F9FCFFF79DFFFEF78DF9472144F61F6096
:10272000FEF764FB472144F61F60FFF71FF94FF4E3
:102730007A714800FEF7B6FBFEF772F93848FEF7EB
:10274000BFF9FEF727F9FEF7CDFCFEF76BFEFEF7AB
:102750002FFBFEF785F962E0FEF7FEFA31493248B9
:102760000068FDF70FFF02D2FEF75AF901E0FEF70D
:1027700077F900F079F82D48B0F916002B49B1F936
:1027800014102A4AB2F91220284BB3F91030CDE9BF
:102790000532CDE907102548B0F90E002349B1F9FB
:1027A0000C10224AB2F90A20204BB3F90830CDE9C7
:1027B0000132CDE903101D48B0F9060000901B4816
:1027C000B0F90430B0F90220B0F9001018A0FFF7FA
:1027D000EDFC1649B1F9000000EBD071491001F58C
:1027E00061711D4A11601D4A11601B48008801B2C9
:1027F0001046008800B2FEF747FB0C48B0F9020013
:10280000174908600948B0F90400164908600846ED
:10281000008801B21248008800B2FFF7F9F89BE780
:10282000A086010000003041600000203800002038
:1028300025642C25642C25642C25642C25642C25EA
:10284000642C25642C25642C25642C25642C25649B
:102850002C25640D0A000000080000200400002060
:102860000C000020100000206648407865498978F7
:1028700040EA0120C0F30A0063490880614880787B
:10288000C0106049C97840EA4110C0F30A005E49AF
:1028900048805C48C07880115A49097940EA810033
:1028A0005849497940EA8120C0F30A005649888096
:1028B0005448407940105349897940EAC110C0F327
:1028C0000A005149C8804F48807900114D49C979A3
:1028D00040EA0110C0F30A004B4908814948C07919
:1028E000C0114849097A40EA41004649497A40EA1C
:1028F0004120C0F30A00444948814248407A801090
:102900004049897A40EA8110C0F30A003E49888133
:102910003C48807A40113B49C97A40EAC1003A49B3
:10292000C8813848007B3749497B40EA0120C0F321
:102930000A00354908823348407BC0103149897B01
:1029400040EA4110C0F30A002F4948822D48807B9D
:1029500080112C49C97B40EA81002A49097C40EA60
:102960008120C0F30A00284988822648007C401054
:102970002449497C40EAC110C0F30A002249C882B8
:102980002048407C00111F49897C40EA0110C0F3B7
:102990000A001D4908831B48807CC0111949C97C65
:1029A00040EA41001749097D40EA4120C0F30A008E
:1029B000154948831348007D80101249497D40EA3B
:1029C0008110C0F30A00104988830E48407D4011F1
:1029D0000C49897D40EAC1000B49C88300200B499E
:1029E00008700848C07D00F0040008B1012008709C
:1029F0000448C07D00F0080010B1032003490870AE
:102A0000704700001E000020380000205D000020FC
:102A1000302A000800000020AC000000CC21000893
:102A2000DC2A0008AC00002024050000DC2100089E
:102A30000100000000000000000000000000000095
:102A40000000000000000000000000000000000086
:102A5000002000FF0740000210802C64210B590861
:102A60004000021080000000FF03FF03FF03FF038C
:102A7000FF03FF03FF03FF03FF03FF03FF03FF0346
:102A8000FF03FF03FF03FF0300000000000300003B
:102A900000003841000000000000000000000000BD
:102AA0000000000000000000000000000000000026
:102AB0000000000000000000010203040102030402
:102AC000060708090204060800A24A0400000000E4
:0C2AD000000000000102030406070809D2
:04000005080000ED02
:00000001FF
