:020000040800F2
:10000000C005002001010008590E0008B50D0008C8
:10001000B90D0008090B00088F200008000000003F
:100020000000000000000000000000001D19000892
:100030000D0B000800000000E10E0008D51A0008B2
:100040001B0100081B0100081B0100081B01000820
:100050001B0100081B0100081B0100081B01000810
:100060001B0100081B010008110B00081B01000800
:100070001B0100081B0100081B0100081B010008F0
:100080001B0100081B0100081B0100081B010008E0
:100090001B0100081B0100081B0100081B010008D0
:1000A0001B0100081B0100081B0100081B010008C0
:1000B0001B0100081B0100081B0100081B010008B0
:1000C0001B0100081B0100081B0100081B010008A0
:1000D0001B010008611D0008191E00081B01000813
:1000E0001B0100081B0100081B010008DFF80CD0F1
:1000F00000F022FC00480047412E0008C005002007
:100100000648804706480047FEE7FEE7FEE7FEE7B1
:10011000FEE7FEE7FEE7FEE7FEE7FEE7D91A000886
:10012000ED00000840EA01039B0703D009E008C97D
:10013000121F08C0042AFAD203E011F8013B00F8AC
:10014000013B521EF9D27047F0B480EA0102D40F8D
:100150004200B2EB410F02D20246084611464A0065
:1001600042D0C30DDDB2C1F3C752AD1A202D35DA2E
:10017000C1F3160141F4000204B15242C5F1200658
:1001800002FA06F12A411044B3EBD05F23D0C4B188
:10019000012DA0EBC35009DCF0BC4FF0004202EA95
:1001A000C352DBB200F5000000F0E0BA400000F1FD
:1001B000807000EBC350A0F1807040EAD17049001C
:1001C00009E0490841EAC071A0EBC35000F5000006
:1001D000400800EBC350F0BC00F0BFBA61420122FE
:1001E00002EB4101001BF6E7F0BC704781F00041D3
:1001F000AAE780F00040A7E780EA010210B502F00C
:100200000043400022D04A001FD0010E01EB1261D2
:10021000C0F35600C2F3560240F4000042F400025C
:10022000A0FB022000047F39140400D0401C50EAD7
:10023000124001D44000491EC2B20C0604EBD0109B
:10024000401C4008802A02D003E0002010BD20F0AE
:100250000100002900DA0020184310BD30B480EA04
:10026000010202F0004530F0004221F0004013D0BE
:1002700090B1C30DD40DC2F31601C0F31600E41AF9
:1002800041F4000140F400027D34914201D3641C2A
:1002900000E04900002C02DA30BC002070474FF427
:1002A00000000023914201D3891A034340084FEA1A
:1002B0004101F7D151B1914202D14FF0004105E027
:1002C00002D24FF0010101E06FF0010103EBC450D5
:1002D000284430BC00F041BA2DE9FE4F804681EA47
:1002E0000300C00F0C46009021F0004123F00045B0
:1002F000B8EB0200A94105D24046214690461C4673
:100300000B46024623F00040104347D0270DC7F3A9
:100310000A00C3F30A510290401A019040286BDA98
:10032000C3F3130040F4801B0098924620B10023D1
:10033000D2EB030A63EB0B0B01985946C0F1400264
:10034000504600F0E9F906460D4650465946019AD6
:1003500000F0F1F910EB08006141002487EA115226
:1003600084EAE7731A4340D0009A62B3019A012AE3
:100370004FEA075215DC001B61EB02014FF000420F
:1003800002EA0752CDE90042001C41F580113246D5
:100390002B4600F052FA03B0BDE8F08F40462146EC
:1003A000F9E7001B61EB0201001C41F58013001806
:1003B0005B412018A2F5001747EB030140EAD57016
:1003C000B6196D4111E06D084FEA360645EAC07571
:1003D0004FEA0752001B61EB0201001C41F580113E
:1003E00049084FEA30000019514132462B4603B00C
:1003F000BDE8F04F00F012BA00980122400000233F
:10040000D0EB020263EBE073009821464FEAE07400
:10041000B8EB000061EB0401E9E783F000435BE720
:1004200081F0004158E72DE9FE4F81EA030404F012
:10043000004421F0004100944FF0000B23F00043F2
:1004400050EA01045ED052EA03045BD0C3F30A54BD
:10045000C1F30A552C44A4F2F3340194A0FB0254D6
:10046000C1F3130141F48011C3F3130343F4801368
:1004700001FB024400FB034E840A970A44EA8154BC
:1004800047EA8357A4FB076802958D0A05FB078599
:100490004FEA932C04FB0C542705029D4FEA0658A3
:1004A00047EA1637B5EB08056EEB070C870E920E80
:1004B00047EA811742EA8312A7FB0201B6EB0B0160
:1004C00064EB00042B0D43EA0C335E1844EB1C5024
:1004D000DA465146E7FB0201C5F313044FEA0B333A
:1004E00043EA14534FEA0432019C43EA0603A4F1A1
:1004F0000C040294009CCDE900B400F09EF903B016
:10050000BDE8F08F00200146F9E72DE9F04D81EAC2
:10051000030404F0004B21F0004514464FF0000A9C
:1005200023F0004150EA050220D054EA01021DD018
:10053000C5F30A570246C5F31303C1F31300C1F311
:100540000A5640F4801543F48013A7EB0608101BED
:10055000D64608F2FD3873EB050002D308F1010816
:1005600001E092185B41B8F1000F03DA0020014668
:10057000BDE8F08D00204FF48011064684460EE061
:10058000171B73EB050705D3121B63EB050306432B
:100590004CEA010C49084FEA300092185B4150EADE
:1005A0000107EDD152EA030012D082EA040083EA87
:1005B0000501084305D0101BAB4106D201220023E0
:1005C00006E000224FF0004302E06FF001025310FA
:1005D0001AEB06004CEB085110EB0A0041EB0B0143
:1005E000BDE8F04D00F01AB9C10F80EAE070084490
:1005F000CA079623002100F0B9B800F0004220F0AD
:100600000040C10DC0F3160040F400007F2901DA5C
:1006100000207047962903DCC1F19601C84001E033
:1006200096398840002AF4D04042704700F00042DA
:1006300030F000400AD0C10D01F56071C0F3160022
:1006400042EA0151C20840071143704700200146A9
:10065000704701F0004330B421F0004150EA01023C
:1006600006D00A0DA2F56072C1F31301002A02DC64
:1006700030BC00207047440F44EAC104C100E018B8
:1006800030BC00EBC25000F068B830B50B460146F4
:1006900000202022012409E021FA02F59D4205D321
:1006A00003FA02F5491B04FA02F52844151EA2F1CB
:1006B0000102F1DC30BD2DE9F05F054600209246D5
:1006C0009B4688460646814640241BE02846414614
:1006D0004746224600F042F953465A46C01A914115
:1006E00010D311461846224600F016F82D1A67EB73
:1006F00001084F4622460120002100F00DF817EBBB
:1007000000094E41201EA4F10104DFDC48463146B9
:100710002A464346BDE8F09F202A04DB203A00FA2F
:1007200002F1002070479140C2F1200320FA03F348
:10073000194390407047202A06DBCB17203A41FA34
:1007400002F043EAE07306E041FA02F3D040C2F15E
:10075000200291400843194670470029A8BF7047FE
:10076000401C490008BF20F00100704710B4B0FAE7
:1007700080FC00FA0CF050EA010404BF10BC704782
:1007800049B1CCF1200421FA04F411FA0CF118BF9C
:10079000012121430843A3EB0C01CB1D4FEA00616B
:1007A0004FEA102042BF002010BC704700EBC3503E
:1007B00010440029A4BF10BC7047401C490008BF6A
:1007C00020F0010010BC7047420005D0C0F3C752B2
:1007D0005242914201DC0020704700EBC15070474B
:1007E00010B541000CD0C0F3C751962908DC7E2912
:1007F00009DC06DB410204D000F0004040F07E50EE
:1008000010BD002010BDC1F19604C4F1200100FA12
:1008100001F1E040FFF7A1FFA04010BD10B5141E8C
:1008200073F1000408DA401C41F1000192185B41A9
:100830001A4301D120F0010010BD2DE9F04D924680
:100840009B4611B1B1FA81F202E0B0FA80F2203297
:100850009046FFF761FF04460F4640EA0A0041EA6E
:100860000B0153465A46084313D0114653EA010080
:1008700019D0C8F14002504600F070F805460E4607
:10088000504659464246FFF747FF084305D001202E
:1008900004E020463946BDE8F08D0020054346EAD5
:1008A000E0762C4337430A986305E40AA0EB08007E
:1008B0000022FD0A44EA47540A3002D500200146CE
:1008C000E9E7010510196941DDE9084500196941A9
:1008D000BDE8F04DA2E7C1F30A52C1F3130140F2A3
:1008E000FF3341F480119A4202DA0020014670473A
:1008F00040F233439A42A2F2334202DC524200F009
:100900002DB8FFF709BF000030B5041E71F10004D7
:1009100004DB4FF00044404264EB0101141E73F10C
:10092000000405DB1C464FF00043524263EB040316
:10093000994208BF904230BD064C074D06E0E06882
:1009400040F0010394E8070098471034AC42F6D316
:10095000FFF7D0FB182F0008382F0008202A04DBEF
:10096000203A21FA02F00021704721FA02F3D04028
:10097000C2F12002914008431946704721B18268B4
:1009800042F00102826003E0826822F0010282608C
:100990007047000010B504461248844208D1012176
:1009A000401500F0CBFA0021601500F0C7FA17E0FF
:1009B0000D48844208D10121001500F0BFFA002142
:1009C000201500F0BBFA0BE00848844208D1012151
:1009D000C80300F0B3FA00214FF4004000F0AEFA73
:1009E00010BD00000024014000280140003C0140EF
:1009F000014600208A6802F004020AB1012000E0EA
:100A000000207047014600208A6802F008020AB1FF
:100A1000012000E00020704730B50246002000238E
:100A200050680F4C20400D790C6844EA052420439F
:100A3000506090680B4C2040D1E902542C434D7912
:100A400044EA450420439060D06A20F470000C7C96
:100A5000641EE4B2234340EA0350D06230BD00007C
:100A6000FFFEF0FFFDF7F1FF816841F008018160B2
:100A70007047816841F004018160704700B587B01C
:100A800001214FF4017000F049FA4FF4004000F0EA
:100A900029FA0220ADF8040000208DF8070001A912
:100AA000174800F0B1F81748FFF774FF00200290D4
:100AB0008DF80C008DF80D004FF46020049000209C
:100AC000059001208DF8180002A90E48FFF7A4FF39
:100AD00001210C48FFF752FF0A48FFF7C5FF00BF8E
:100AE0000848FFF78FFF0028FAD10648FFF7C1FF3B
:100AF00000BF0448FFF77CFF0028FAD107B000BD13
:100B0000000801400024014000BFFEE770470000DC
:100B100010B5052001F0DCFF0A48006848B9094813
:100B20008C30006808B9012000E0002005498C31B4
:100B3000086000BF034800680028FBD0102000F0C8
:100B400003F810BD30812142014908607047000060
:100B50001404014010B586B004460121052000F0C0
:100B6000DDF90121480400F0C9F90420ADF81400B2
:100B700003208DF8160018208DF8170005A92048CD
:100B800000F042F80820ADF8140004208DF817009A
:100B900005A91B4800F038F826208DF80000002039
:100BA0008DF801008DF8020001208DF803006846E1
:100BB00000F054F901944FF48050ADF80800400063
:100BC000ADF80A00C010ADF80C000020ADF8100020
:100BD0000420ADF80E0001A90A4801F0E3F940F243
:100BE0002551084801F066F9012240F225510548D7
:100BF00001F0B2F90121034801F06BF906B010BD14
:100C000000080140004400402DE9F0410246002563
:100C10000026002000230024002791F803C00CF0D8
:100C20000F0591F803C00CF0100CBCF1000F03D0BD
:100C300091F802C04CEA050591F800C0BCF1000F24
:100C400031D0146800202BE04FF0010C0CFA00F3B7
:100C5000B1F800C00CEA03069E4220D183004FF099
:100C60000F0C0CFA03F7BC4305FA03FC4CEA04042E
:100C700091F803C0BCF1280F06D14FF0010C0CFA1B
:100C800000FCC2F814C00AE091F803C0BCF1480FA0
:100C900005D14FF0010C0CFA00FCC2F810C0401C4A
:100CA0000828D1D31460B1F800C0BCF1FF0F34DDC7
:100CB000546800202EE000F1080C4FF0010808FAFB
:100CC0000CF3B1F800C00CEA03069E4221D1830068
:100CD0004FF00F0C0CFA03F7BC4305FA03FC4CEA87
:100CE000040491F803C0BCF1280F05D100F1080CF1
:100CF00008FA0CF8C2F8148091F803C0BCF1480F50
:100D000007D100F1080C4FF0010808FA0CF8C2F8FE
:100D10001080401C0828CED35460BDE8F08100004C
:100D2000F0B50A46002300240021002500F000460B
:100D3000B6F1004F02D11D4EF16901E01B4E716802
:100D4000C0F3034583B200F44016B6F5401F08D146
:100D500021F07061154E766826F07066134F7E6044
:100D600012E000F48016B6F5801F06D1032606FABD
:100D700005F4A14341F0706106E0460D360103FA27
:100D800006F6B14341F0706122B1460D360103FA17
:100D900006F6314300F00046B6F1004F02D1034E93
:100DA000F16101E0014E7160F0BD00000000014002
:100DB0004161704700BFFEE700BFFEE730B589B074
:100DC00005460C460121042000F098F80121082076
:100DD00000F0A4F8C020ADF8200018208DF8230002
:100DE00003208DF8220008A91948FFF70DFFC02144
:100DF0001748FFF7DDFFADF81850ADF8144000209C
:100E0000ADF81A00ADF8160005A9124800F056FF1B
:100E10007020ADF804000120ADF806000220ADF806
:100E20000C0001A90B4800F093FE01A9094800F04D
:100E3000E5FE0821074800F0D7FE0821054800F02C
:100E40002FFF0121034800F077FE09B030BD0000FC
:100E5000000C0140000800407047000070B5002100
:100E600000230F22C47804B3154C246804F4E06412
:100E7000C4F5E064210AC1F10403CA40447804FACD
:100E800003F184781440214309010E4C0678A155E2
:100E9000047804F01F050124AC4005786D11AD0005
:100EA00005F1E025C5F8004109E0047804F01F05CC
:100EB0000124AC40044D0678761145F8264070BDFB
:100EC0000CED00E000E400E080E100E002490143B5
:100ED000024A1160704700000000FA050CED00E0C6
:100EE0007047000001460020034A506820F440404B
:100EF00008435060704700000010024029B1064AC4
:100F0000D2690243044BDA6104E0034AD2698243A6
:100F1000014BDA61704700000010024029B1064A17
:100F200092690243044B9A6104E0034A9269824346
:100F3000014B9A61704700000010024029B1064A37
:100F4000D2680243044BDA6004E0034AD268824369
:100F5000014BDA60704700000010024030B50021FC
:100F60000022002400232D4D6D6805F00C0121B1F5
:100F7000042905D0082923D105E0294D056022E088
:100F8000274D05601FE0254D6D6805F47012234D57
:100F90006D6805F48034022505EB92421CB9214DA1
:100FA000554305600BE01D4D6D6805F400351DB11E
:100FB0001C4D5543056002E0194D5543056002E0A4
:100FC000174D056000BF00BF144D6D6805F0F001BE
:100FD0000909154D6B5C0568DD4045600F4D6D6876
:100FE00005F4E061090A104D6B5C4568DD408560E1
:100FF0000A4D6D6805F46051C90A0B4D6B5C45687C
:10100000DD40C560054D6D6805F44041890B074D15
:101010006B5CC568B5FBF3F5056130BD001002409F
:1010200000127A0000093D006C0000207C000020C6
:1010300000B587B001210820FFF770FF01210803E8
:10104000FFF76CFF01210846FFF768FF1B48406867
:1010500040F001001949486018208DF80700382039
:10106000ADF8040003208DF8060001A91448FFF72D
:10107000CBFD0820ADF814000020ADF81000ADF84D
:101080000E000720ADF818000020ADF80C00ADF8F8
:101090000800ADF816004FF48270ADF80A004FF466
:1010A0000070ADF8120002A9064800F05CF80121BA
:1010B000044800F04CF807B000BD000000000140FB
:1010C000000C014000300140014600BF0948008982
:1010D00000F002000028F9D00648818100BF0548D1
:1010E000008900F001000028F9D002488089C0B2D0
:1010F000704700000030014000B5024642F0800019
:10110000FFF7E2FFFF20FFF7DFFF00BD70B50346EA
:101110000C46254643F08000FFF7D6FF002606E088
:10112000FF20FFF7D1FF05F8010B701C86B2964235
:10113000F6DB002070BD00B502460B4602F07F00D2
:10114000FFF7C2FF1846FFF7BFFF002000BD21B127
:10115000028842F04002028004E002884FF6BF732A
:101160001A400280704710B50022028802F44152F2
:101170000B884C8823438C882343CC8823430C89D9
:1011800023434C8923438C892343CC8923431A432B
:101190000280838B4FF2FF74234083830B8A038288
:1011A00010BD000070B505460C46082C26D2DFE8BD
:1011B00004F004090D1115191D214FF092401D492D
:1011C00008601BE01C481B49086017E01B481949D0
:1011D000086013E01A48174908600FE019481549DC
:1011E00008600BE018481349086007E017481149E8
:1011F000086003E016480F49086000BF00BF0D48B3
:1012000001684FF07E50FFF729F80A49086045EA67
:101210000401062000F06EFB032C09DD092000F01C
:1012200093FA064646F00401092000F063FB00BF74
:1012300070BD0000680000200000C0490000604A46
:101240000000F04A000078480000FC4800007E4999
:101250000000FF4970B505460C46082C26D2DFE891
:1012600004F004090D1115191D214FF092401E497B
:1012700008601BE01D481C49086017E01C481A491B
:10128000086013E01B48184908600FE01A48164927
:1012900008600BE019481449086007E01848124933
:1012A000086003E017481049086000BF00BF0E48FF
:1012B00001684FF07E50FEF7D1FF0B49086045EA08
:1012C000040040F08001072000F014FB032C09DD2E
:1012D000092000F039FA064646F00801092000F01E
:1012E00009FB00BF70BD0000640000200000C04981
:1012F0000000604A0000F04A000078480000FC4806
:1013000000007E490000FF492DE9F05F144A116991
:10131000D068FEF7A3FF8046114948691149FEF7DE
:1013200013FF814600F02CFA404601F0C1FC8346D1
:101330000D49FEF761FF074601F0F0FB06464FF04E
:101340007E51FEF756FF054649460848FEF754FF12
:1013500082462946FEF750FF04462046BDE8F09F2E
:101360007C0100203393884341D3423EA1D81943E6
:1013700038B503226946002000F0D0F99DF800003E
:1013800000049DF8011000EB01209DF802104418A4
:1013900004F4000010B144F07F4000E02046044611
:1013A000204638BD38B503226946104600F0B6F92C
:1013B0009DF8000000049DF8011000EB01209DF84D
:1013C0000210441804F4000010B144F07F4000E023
:1013D00020460446204638BD2DE9F04F89B0012152
:1013E0000420FFF79BFD01210846FFF797FD01212F
:1013F000BA48FFF795FC10208DF80B00C002ADF83D
:10140000080002208DF80A0002A9B548FFF7FCFB8E
:1014100089210C2000F06EFA18B1012009B0BDE856
:10142000F08F0D2000F090F98346BBF1100F01D032
:101430000120F3E7C82001F04BFB122203A9102082
:1014400000F06CF99DF80C0000019DF80D1000EB08
:101450001110A44908800846008800F4006028B1F3
:101460000846B0F9000040F4704002E09D48B0F931
:10147000000000B29B4908809DF80E009DF80D10F9
:1014800001F00F0100EB0120974908800846008811
:1014900000F4006028B10846B0F9000040F4704044
:1014A00002E09148B0F9000000B28F4908809DF831
:1014B0000F0000039DF8101000EB01109DF81110B3
:1014C00000EB2110894908609DF811000007000B0E
:1014D0009DF8121000EB01209DF813100844844978
:1014E00008608248006800F4002020B17F4800684E
:1014F0008049084301E07D4800687C4908607C48D9
:10150000006800F4002020B1794800687949084358
:1015100001E077480068764908609DF815009DF85D
:10152000141000EB012000B2734908809DF81700E9
:101530009DF8161000EB012000B2704908800846A3
:10154000008800F4006028B10846B0F9000040F4BB
:10155000704002E06948B0F9000000B267490880B5
:101560009DF819009DF8181000EB012000B26449A5
:1015700008800846008800F4006028B10846B0F9E9
:10158000000040F4704002E05D48B0F9000000B295
:101590005B4908809DF81B009DF81A1000EB0120A4
:1015A00000B2584908800846008800F4006028B15D
:1015B0000846B0F9000040F4704002E05148B0F92C
:1015C000000000B24F4908809DF81D009DF81C10D6
:1015D00000EB012000B24C4908800846008800F466
:1015E000006028B10846B0F9000040F4704002E005
:1015F0004548B0F9000000B243490880042170203A
:10160000FFF7D0FD03213020FFF724FE072000F074
:10161000AFF8142001F05CFA4FF0000A0FE000F080
:10162000AFF83A48C068394908610846806848619F
:10163000142001F04DFA0AF1010000F0FF0ABAF19E
:101640000A0FECDB4FF0000A43E000F099F82F4955
:10165000C868FEF7EBFF80462D4A2E4BFEF7E3FEEF
:1016600004460D46294801692B48FEF7C5FD804612
:10167000FEF7DCFF064622462B46FEF72DFECDE99F
:101680000001FEF7E6FF214908618868FEF7CEFFFA
:101690001F4A204BCDE90001FEF7C5FE04460D466A
:1016A0001A4841691C48FEF7A7FD0190FEF7BEFFEE
:1016B000064622462B46FEF70FFE8046FEF7C9FF80
:1016C00012494861142001F003FA0AF1010000F008
:1016D000FF0ABAF1140FB8DB00209FE600023000C9
:1016E000000801404C0000204E0000205C0000205B
:1016F000600000200000F0FF500000205200002099
:101700005400002056000020580000207C010020DA
:101710009A9999999999C93FCDCC4C3F70B5044697
:101720000D461646002006490860324629462046E6
:10173000FFF7ECFC01200349C1F8BC01002070BD9B
:10174000BC0121420000214270B504460020064938
:1017500008602046FFF7D0FC054601200349C1F888
:10176000BC01284670BD0000BC012142000021429E
:1017700010B504462146082000F0BCF810BD00005A
:1017800010B5FFF70FFE04494860FFF7F1FD02496D
:10179000086000F003F810BD7C0100202DE9FC5F1B
:1017A00048494868FEF720FF8046474801684046A0
:1017B000FEF722FD044643490868FEF715FF804600
:1017C000424801684046FEF717FD05464048B0F91B
:1017D0000000FEF709FF82462146FEF70DFD804618
:1017E0003C48B0F90000FEF7FFFE82464FF07C5106
:1017F000FEF702FD81464146FEF7A6FC31498860AE
:101800003548B0F90000FEF7EFFE83462946FEF7A3
:10181000F3FC82463148B0F90000FEF7E5FE514680
:101820000090FEF791FC81462946FEF7E5FC8046D4
:101830002B480068FEF7D8FE41460190FEF784FC75
:1018400006462848B0F90000FEF7CEFE834629463A
:10185000FEF7D2FC80462448B0F90000FEF7C4FE33
:1018600082464146FEF770FC814629462046FEF737
:10187000C3FC49460190FEF7BFFC07461B48B0F980
:101880000000FEF7B1FE83462146FEF7B5FC814617
:1018900031462846FEF7B0FC834615480068FEF73F
:1018A000A3FE59460190FEF74FFC82464946FEF7DB
:1018B0004BFC80463946FEF747FC0249C860BDE84C
:1018C000FC9F00007C0100206400002068000020D4
:1018D0004E0000204C000020580000205400002042
:1018E0006000002056000020520000205000002020
:1018F0005C00002070B504460D46002005490860D4
:1019000029462046FFF717FC01200349C1F8BC0116
:10191000002070BDBC012142000021427047000040
:1019200030B589B005460C4601210220FFF7E6FAE2
:1019300001210820FFF7F2FA01210420FFF7EEFA57
:10194000C020ADF8200018208DF8230003208DF86A
:10195000220008A91948FFF757F9C0211748FFF7D7
:1019600027FAADF81850ADF814400020ADF81A0071
:10197000ADF8160005A9124800F0A0F97020ADF8E6
:1019800004000120ADF806000220ADF80C0001A90A
:101990000B4800F0DDF801A9094800F02FF90821F3
:1019A000074800F021F90821054800F079F90121E4
:1019B000034800F0C1F809B030BD00000008014044
:1019C0000004004010B500F001F810BD0CB5002077
:1019D000019000903348006840F48030314908603D
:1019E00000BF3048006800F4003000900198401CAF
:1019F0000190009818B90198B0F5A06FF1D129486D
:101A0000006800F4003010B10120009001E00020D7
:101A100000900098012843D12348006840F010004E
:101A2000214908600846006820F003000860084665
:101A3000006840F0020008601A4840681949486090
:101A40000846406848600846406840F48060486046
:101A50000846406820F47C1048600846406840F41E
:101A6000E81048600846006840F08070086000BFD9
:101A70000C48006800F000700028F9D00948406860
:101A800020F00300074948600846406840F0020023
:101A9000486000BF0348406800F00C000828F9D1F6
:101AA0000CBD00000010024000200240042808D1B4
:101AB0004FF0E021096941F004014FF0E02211618B
:101AC00007E04FF0E021096921F004014FF0E02226
:101AD000116170477047000010B51348006840F06E
:101AE00001001149086008464068104908400E4945
:101AF0004860084600680E4908400B4908600846DF
:101B0000006820F4802008600846406820F4FE0049
:101B100048604FF41F008860FFF754FF4FF00060EB
:101B20000449086010BD0000001002400000FFF8EA
:101B3000FFFFF6FE08ED00E021B1028842F001024D
:101B4000028004E002884FF6FE731A40028070475C
:101B500070B5002400220023058C4FF6FE76354038
:101B60000584028C8388048B4FF68F752C40B51E3C
:101B70002C400D882C43751E2A400D892A434D8820
:101B80002A43144DA8420BD0134DA84208D0134D40
:101B9000A84205D0124DA84202D0124DA84213D13E
:101BA0004FF6F7752A404D892A434FF6FB752A40B8
:101BB0008D882A434FF6FF652B404FF6FF552B408B
:101BC0008D892B43CD892B4383800483CD888586E3
:101BD000028470BD002C01400034014000400140EF
:101BE00000440140004801400A460021018B4FF6A5
:101BF000F7731940114301837047000070B500244A
:101C000000220023058C4FF6EF7635400584028CC8
:101C10008388048B48F6FF752C404FF6FF452C4017
:101C20000D884FF6FF7606EA05252C434FF6DF7543
:101C30002A400D8906EA05152A434D8806EA05154E
:101C40002A43154DA84202D0144DA8421DD14FF68B
:101C50007F752A404D894FF6FF7606EA05152A431F
:101C60004FF6BF752A408D8806EA05152A434FF6C0
:101C7000FF352B404FF2FF752B408D8906EA850515
:101C80002B43CD8906EA85052B4383800483CD88C9
:101C90000587028470BD0000002C01400034014023
:101CA0000A460021018B4FF2FF7319404FF6FF7374
:101CB00003EA0223194301837047000000220288CF
:101CC0001D4B98420ED01D4B98420BD0B0F1804F67
:101CD00008D01B4B984205D01A4B984202D01A4BA1
:101CE000984204D14FF68F731A404B881A43174B12
:101CF000984207D0164B984204D04FF6FF431A4043
:101D0000CB881A4302808B8883850B8803850A4B16
:101D100098420BD0094B984208D00E4B984205D000
:101D20000D4B984202D00D4B984201D10B7A03869D
:101D30000123838270470000002C014000340140E1
:101D40000004004000080040000C0040001000406B
:101D500000140040004001400044014000480140A0
:101D600010B540F22551294800F0CCF8002838D0B1
:101D7000264800F083F904462146244800F083F900
:101D80002348008800F4004058BB2148008800F434
:101D9000804060B10A2C03D000201D49088020E05B
:101DA0001B48008840F400401949088019E00D2CB8
:101DB00006D11748008840F480401549088010E09B
:101DC00013490988C1F30D01124A54541048008880
:101DD000401C0F49088008460088C72801DD002004
:101DE000088040F22771094800F08CF860B100BF0C
:101DF0008021064800F079F80028F9D0002240F24E
:101E00002771024800F0A8F810BD0000003801401A
:101E1000080000209800002010B540F2255120480D
:101E200000F070F8002839D040F225511C4800F02D
:101E300041F81B4800F022F9C4B21A48007858B99A
:101E40000F2C09D10020174908701748097844540D
:101E5000FF201549087607E012480078401C114918
:101E600008701148097844540E480078182801D1A8
:101E7000012000E000200C49097E09B9012100E0A1
:101E80000021084050B1192207490848FEF74AF9D5
:101E900001200749087000200249087010BD0000A9
:101EA000004400404A000020600100200A00002099
:101EB0004800002010B50022002340F66A14A14219
:101EC00000D100BF0A1201249440A3B2DC43048075
:101ED00010BD21B1828942F40052828104E08289DE
:101EE0004DF6FF731A408281704702460020B1F51B
:101EF000007F00D100BF13880B400BB1012000E030
:101F00000020704770B50246002400230025002001
:101F100040F66A16B14200D100BFC1F3421501F08C
:101F20001F03012606FA03F3012D02D196893340DF
:101F300006E0022D02D1168A334001E0968A334032
:101F40000C12012606FA04F41688344013B10CB1C1
:101F5000012000E0002070BDF0B5034600240026FB
:101F60000025002040F66A17B94200D100BF18468C
:101F7000C1F3421401F01F06012707FA06F5012CF0
:101F800001D10C3004E0022C01D1103000E01430FB
:101F90001AB107682F43076002E00768AF43076084
:101FA000F0BD00002DE9F04786B005460E4600243E
:101FB000A24600BFA1460027B08900B100BF2F464E
:101FC0002C8A4CF6FF700440F08804432C82AC89C4
:101FD0004EF6F3100440B0883189084371890843F4
:101FE0000443AC81AC8A4FF6FF400440B0890443FF
:101FF000AC8201A8FEF7B2FF1F48874202D1DDF88C
:1020000010A001E0DDF80CA0A88900F4004040B168
:102010000AEBCA0000EB0A1031684900B0FBF1F886
:1020200007E00AEBCA0000EB0A1031688900B0FB38
:10203000F1F86420B8FBF0F004012009642101FBF1
:102040001089A88900F4004040B1322000EBC9009B
:10205000B0FBF1F000F00700044308E0322000EB91
:1020600009106421B0FBF1F000F00F0004432C8153
:1020700006B0BDE8F08700000038014001468888BE
:10208000C0F308007047C1F308028280704700BFA8
:10209000FEE7000000B587B001218803FEF73EFF90
:1020A00001210420FEF73AFF4FF40070ADF818004C
:1020B00003208DF81A0018208DF81B0006A91D4872
:1020C000FEF7A2FD4FF48060ADF8180004208DF8F3
:1020D0001B0006A91748FEF797FD25208DF8040080
:1020E00003208DF805008DF8060001208DF807000B
:1020F00001A8FEF7B3FE4FF4E13002900020ADF8E6
:102100000C00ADF80E00ADF81000ADF814000C2076
:10211000ADF8120002A90848FFF744FF012240F27F
:1021200025510548FFF718FF01210348FFF7D1FEAD
:1021300007B000BD00080140003801400FB4054B56
:1021400010B503A9044A029800F008F910BC5DF824
:1021500014FB00008D2C0008040000204100080240
:1021600018BF04200A0E18BF40F001004FF07F4254
:1021700032EA010108BF40F00200012808BF052033
:10218000704700214FF07E50FEF768B80121FEF73E
:102190001BBB00210846FEF761B861214FF0E0400B
:1021A000FEF712BB6FF05E010807FEF70DBB02E001
:1021B00008C8121F08C1002AFAD1704770470020D2
:1021C00001E001C1121F002AFBD1704701490860DC
:1021D00070470000940000202DE9FF5F82B00021CD
:1021E000DDE90430020DDDF840B0034318D044F6B9
:1021F0001050A2F2FF3242431514119801281FD04B
:10220000A5EB0B00401C5FEA000A4FF000064E4FA2
:10221000DFF83891B046504615D5CAF1000413E0F6
:10222000119801244AA3012801D16FEA0B010298F9
:10223000119AC0E90031C0E9024206B0BDE8F09F42
:10224000CBF10000DFE704460021404A491842EB89
:102250000450CDE9001012E0E00707D032463B46BB
:1022600040464946FEF7DFF88046894632463B46FF
:1022700010461946FEF7D7F806460F466410002CA4
:10228000EAD1DDE90401DDE90023BAF1000F06DA45
:10229000FEF7C9F842464B46FEF7C5F805E0FEF7E3
:1022A00034F942464B46FEF730F904460E4600220A
:1022B000284BFEF729FB03D84FF0FF30014607E01B
:1022C0000022254B20463146FEF706F8FEF703FBB9
:1022D000102409E0002C0ADB0A220023FEF7EBF9A8
:1022E000039B30321A55641E50EA0102F2D1641C7D
:1022F000039AC4F111031444119A012A03D0012254
:1023000008430DD10AE0084304D000204FF0110B20
:10231000119072E7A3EB0B056D1E0DE05B4504DD2C
:102320004FF0000205F1010504E003DA4FF000026E
:10233000A5F10105002AECD002981199C0E90231FB
:10234000C0E9004579E70000000014400000F03FBC
:10235000300000000000F0430000E03F2DE9FF4F97
:1023600095B09B468946064600250FE2252877D181
:1023700000242746F84A0121059400E0044316F89A
:10238000013F203B01FA03F01042F7D130782A28B0
:1023900011D06FF02F033078A0F13002092A16D83F
:1023A000059A44F0020402EB820203EB420210445D
:1023B000761C0590EFE759F8042B0592002A03DA02
:1023C000504244F40054059044F00204761C3078E6
:1023D0002E2816D116F8010F44F004042A280DD037
:1023E0006FF02F023078A0F13003092B09D807EBEA
:1023F000870302EB4303C718761CF3E759F8047B05
:10240000761C30786C280FD006DC4C2817D0682852
:102410000DD06A2814D104E0742810D07A280FD186
:102420000DE044F400140AE044F4801401E044F4A4
:1024300040147278824202D104F58014761C761C16
:10244000307866280BD013DC582877D009DC0028B8
:1024500075D04528F6D04628F4D047281AD19DE1FA
:1024600018E0632835D0642879D0652812D195E129
:10247000702873D008DC6728F1D069286FD06E28E7
:102480000DD06F2806D1B5E073282CD0752875D0F3
:10249000782874D05A46179990476D1C75E1C4F39B
:1024A0000250022809D003280DD0D9F800100428C2
:1024B0000DD00D6009F1040967E1D9F80010EA17A1
:1024C000C1E90052F6E7D9F800100D80F2E70D706F
:1024D000F0E719F8041B8DF8001000208DF80100BA
:1024E000EA46012003E059F804AB4FF0FF306107E2
:1024F0004FF0000102D40DE008F101018846B94215
:102500000FDA8045F8DB1AF808100029F4D108E04A
:1025100008F1010188468142FADB1AF80810002907
:10252000F6D105985B46A0EB080721463846179A76
:1025300000F094FA284400EB080507E04DE029E19B
:102540000DE01AF8010B5A4617999047B8F10108A7
:10255000F7D25B4621463846179A13E142E00A2239
:102560000092C4F302524FF0000A022A08D059F830
:1025700004CB032A4FEAEC710AD00DE029E02AE0EF
:1025800009F1070121F00702F2E802C1914609E0D2
:102590000FFA8CFC4FEAEC71042A03D14FFA8CFC41
:1025A0004FEAEC71002907DA0A460021DCF1000C41
:1025B00061EB02012D2202E0220504D52B228DF8C9
:1025C0000420012203E0E20701D02022F7E7904631
:1025D00059E00A2102E010220DE010214FF0000A1C
:1025E00000910BE010224FF0000A44F00404082789
:1025F000009203E008224FF0000A0092C4F3025256
:10260000022A05D059F804CB0021032A08D009E09A
:1026100009F1070121F00702F2E802C1914605E045
:102620001FFA8CFC042A01D10CF0FF0C4FF00008BB
:10263000220728D5702806D0009B83F0100353EAA8
:102640000A0305D00EE040228DF80420012208E0A4
:102650005CEA010206D030228DF804208DF80500D6
:1026600002229046009B83F0080353EA0A030AD132
:102670005CEA010201D1620705D530228DF8042001
:102680004FF001087F1E582804D034A003900EA8F4
:1026900002900DE036A0F9E753466046009AFEF737
:1026A0000AF884460398825C0298401E02900270E9
:1026B0005CEA0100F0D1029806A9081A00F1200A8C
:1026C000600702D524F4803400E00127574502DD7D
:1026D000A7EB0A0000E0002000EB0A01009005983B
:1026E0004144401A0590E00306D45B462146179A00
:1026F000059800F0B3F90544002706E001A85A4602
:10270000C05D179990476D1C7F1C4745F6DBE003C1
:102710000CD55B462146179A059800F09FF90544B1
:1027200004E030205A46179990476D1C0099481EC6
:1027300000900029F5DC08E0029802995A460078DA
:10274000491C0291179990476D1CBAF10001AAF13A
:10275000010AF1DC65E10000092801003031323363
:1027600034353637383961626364656600000000CD
:1027700030313233343536373839414243444546B7
:102780000000000000F058F90544761C307800285D
:102790007FF4ECAD19B02846BDE8F08F620700D495
:1027A000062709F1070222F0070CFCE80223E146A4
:1027B00003F000485FEA080C02D00FF2702C0DE025
:1027C0005FEA045C02D50FF2682C07E05FEAC47C84
:1027D00002D00FF2602C01E0AFF2700C4FF0FF3826
:1027E00023F00043CDF850C065280CD006DC452806
:1027F00009D046281DD047283DD13DE0662818D095
:1028000067287ED138E00021112F01DB112000E084
:10281000781CCDE9000106A90EA8FFF7DDFCDDE973
:102820000F010E9A03910021009207F1010A049111
:102830004DE04FF000400097CDE9011006A90EA829
:10284000FFF7CAFCDDE90F0203920E9B11990022EB
:10285000DDF80CA00093049211B9791C00EB010A79
:10286000B7EB0A0004D4C0F1FF3007F1010A04906D
:10287000AAEB0700019044E0012F00DA01270021B4
:10288000112F01DD112000E03846CDE9000106A935
:102890000EA8FFF7A1FCDDE90F010E9A03910021BC
:1028A00004910092BA4621070CD40399514500DAED
:1028B0008A46BAF1010F05DD009AAAF10101515CC7
:1028C000302908D0B84202DA10F1040F06DA0121EB
:1028D000CDE9011015E0AAF10101E9E7002805DCC6
:1028E000049901440491AAEB000102E0411C514506
:1028F00000DD8A460499401A401C01904FF00040C8
:102900000290200704D40198504501DBCDF80480E3
:1029100000208DF84F0002980DF14F07B0F1004FE5
:1029200025D02B200E9002984FF0020800280CDAD8
:10293000404202902D200E9007E00A210298FDF7F8
:10294000A4FE3031029007F8011DB8F10001A8F192
:102950000108F2DC02980028EFD1791E0E98087069
:10296000307800F0200040F0450007F8020D12A872
:10297000C01B00F107081498007800B1012000EB9B
:102980000A01019801EBE07105984144401A401E8C
:102990000590E00306D45B462146179A059800F09F
:1029A0005DF805441498007818B15A461799904775
:1029B0006D1CE00324D55B462146179A059800F06C
:1029C0004DF805441CE00498002807DBDDE903010D
:1029D000884203DD0098405C179901E01799302088
:1029E0005A469047049805F10105401C049001984F
:1029F000401E019004D12E205A46179990476D1C15
:102A0000BAF10001AAF1010ADDDC05E017F8010BBB
:102A10005A46179990476D1CB8F10001A8F10108BA
:102A2000F4DC5B462146179A0598ABE62D000000C2
:102A30002B000000200000002DE9F0410446002595
:102A40001E461746880404D405E039462020B047C6
:102A50006D1C641EF9D52846BDE8F0812DE9F041D2
:102A6000044600251E469046C80301D5302700E0E5
:102A70002027880404D505E041463846B0476D1C40
:102A8000641EF9D52846BDE8F081000010B56FF04E
:102A90000400FFF70BF80A4800680A49B0FBF1F0A0
:102AA000094908700846007800EB4001C1EBC010EE
:102AB0004FF6FF7101EAC0000449088010BD000014
:102AC0008000002000127A00000000200200002098
:102AD0000146114A12884A434FF0E0235A6100220E
:102AE0009A611A46126942F001021A6100BF4FF062
:102AF000E022106900F001021AB100F48032002ACD
:102B0000F5D04FF0E022126922F001024FF0E023ED
:102B10001A6100229A617047020000202DE9F041FD
:102B200004464FF019404E49002500EB440088420E
:102B30004AD84C492046FDF75FFBFDF751FE804621
:102B4000FDF75BFD064648494046FDF755FB074645
:102B500046494046FDF750FB2146FDF74AFB394602
:102B6000FDF744FB04464249FDF746FB4149FDF7AA
:102B7000EBFA2146FDF740FB6FF04141FDF7E4FA27
:102B80002146FDF739FB3C49FDF7DEFA2146FDF70A
:102B900033FB0146394806F00304784450F824001A
:102BA000FDF72AFB3649794451F82410FDF7CCFA99
:102BB0003449794451F82410FDF7C6FAB11085BBA9
:102BC000BDE8F041FDF700BE4FF0FF4131EA0400DF
:102BD00018D04FF0CE41B1EB440F84BF4FF07E5080
:102BE000BDE8F0812849B1EB440F28BF0125A0D2F0
:102BF0000220FFF7EBFA14F0004F0ED0BDE8F041D1
:102C0000FFF7D0BA204614F5000F04BF0020BDE83E
:102C1000F081BDE8F041FFF7B9BABDE8F041FFF738
:102C2000BCBAFDF7D1FD04000BD0B4F1FF4F0FD0BB
:102C3000FFF794FA042808BFFFF7B4FA2046BDE86E
:102C4000F0810220FFF7C2FABDE8F041FFF7AABA0F
:102C50000220FFF7BBFABDE8F041FFF79EBA000083
:102C60000000501E3BAAB840F4FD05370070313E0D
:102C700012BB2A3D12BB2A3EFFFF7F3F2A03000002
:102C80000E030000F20200000000A08570B50446AB
:102C90000D46E1B20548FFF7F6F900BF8021034871
:102CA000FFF723F90028F9D0204670BD0038014015
:102CB0002DE9F0410026A0F50001B1F1FE4F7DD2D3
:102CC00000F500226FF07E0101EBE251C2F30254E5
:102CD00077184FF07E52A0EBC15602EB045557EA2D
:102CE000040047D029463046FDF72EFA8046294693
:102CF0003046FDF77BFA4146FDF7B0FA054601463E
:102D0000FDF77AFA80464549FDF776FA4449FDF722
:102D10001BFA064641462846FDF76EFA3146FDF796
:102D20006BFA06463846FDF75FFC07463D49FDF75E
:102D300063FA3D49794451F82410FDF705FA31460C
:102D4000FDF702FA064601212846FDF73DFD314612
:102D5000FDF7FAF9054638463449FDF74DFA34498E
:102D6000794451F82410FDF7EFF92946BDE8F04108
:102D7000FDF7EAB94FF07E513046FDF737FA0546C8
:102D80002C49FDF739FA2C49FDF7DEF92946FDF704
:102D900033FA2A49FDF7D8F92946FDF72DFA6FF0E5
:102DA0008241FDF7D1F9044629460846FDF724FA89
:102DB0002146FDF721FA0146284600E003E0BDE880
:102DC000F041FDF7C1B94FF07F42B2EB400F03D2A3
:102DD000BDE8F041FFF7DAB9B0F1FF4F08BFBDE839
:102DE000F081B0F1004F06D90120FFF7EFF9BDE8FF
:102DF000F041FFF7CEB930F0004105D06FF0160674
:102E00001721FDF7E1FC5BE70220FFF7DFF9FFF791
:102E1000B8F980F00040BDE8F081000066F1CC3EDA
:102E2000AAAA2A3FF4FD0538C00100000070313F16
:102E30007401000021ED423E0A1180BEC1ABAA3EE2
:102E40004FF4A060FEF742F8FFF724F9FFF71EFEEB
:102E5000472144F61F60FDF7B1FF472144F61F608C
:102E6000FEF75EFD0D48FDF775FEFDF707FEFEF768
:102E7000DFF8FEF7B1FA0FE0FEF746FA084988617D
:102E80008869FDF7D3FB044622460B4605A0FFF7F1
:102E900055F96420FFF71CFEEEE70000A086010054
:102EA0007C01002025660A000000803F0030983F2A
:102EB0000000B53F0040D73F00000000320A7E39D5
:102EC0007F661E395B991F390000803FF037983FBD
:102ED000F304B53FFD44D73F000000000030F13D52
:102EE0000070643E0000A33E0090CF3E0090F83E8C
:102EF00000400F3F00E0203F0000000015B783377F
:102F0000CDE37B380EE1C53860F69138AF5F0F38FE
:102F1000E1BC3E3823F44739382F00080000002078
:102F200098000000AE210008D02F00089800002073
:102F300028050000BE21000800000000000000007D
:102F400000000000002000FF0740000210802C64F9
:102F5000210B59084000021080000000FF03FF030E
:102F6000FF03FF03FF03FF03FF03FF03FF03FF0351
:102F7000FF03FF03FF03FF03FF03FF030000000045
:102F8000000300000000000000000000000000003E
:102F90000000000000000000000000000000000031
:102FA000000000000000000001020304010203040D
:102FB000060708090204060800A24A0400000000EF
:102FC00000000000010203040607080900000000D9
:04000005080000ED02
:00000001FF
